:020000040800F2
:100000000000022049380008193400081B34000899
:100010001D3400081F3400082134000800000000CF
:10002000000000000000000000000000A127000800
:10003000233400080000000031280008253400089F
:10004000993800089938000899380008993800084C
:10005000993800089938000899380008993800083C
:10006000993800089938000899380008993800082C
:10007000993800089938000899380008993800081C
:10008000993800089938000899380008993800080C
:1000900099380008993800089938000899380008FC
:1000A00099380008993800089938000899380008EC
:1000B00099380008993800089938000899380008DC
:1000C00099380008993800089938000899380008CC
:1000D00099380008993800089938000899380008BC
:1000E00099380008993800089938000899380008AC
:1000F000993800089938000899380008993800089C
:10010000993800089938000899380008993800088B
:10011000993800089938000899380008993800087B
:10012000993800089938000899380008993800086B
:10013000993800089938000899380008993800085B
:1001400099380008993800089938000835340008B3
:10015000993800089938000899380008993800083B
:10016000993800089938000899380008993800082B
:1001700099380008993800089938000800000000F4
:080180009938000899380008C5
:1001900010B5054C237833B9044B13B10448AFF3C1
:1001A00000800123237010BDC80100200000000062
:1001B000AC3A000808B5034B1BB103490348AFF341
:1001C000008008BD00000000CC010020AC3A00080F
:1001D00053B94AB9002908BF00281CBF4FF0FF31AE
:1001E0004FF0FF3000F07AB9ADF1080C6DE904CEA4
:1001F00000F006F8DDF804E0DDE9022304B0704702
:100200002DE9F0478C460D460446089E002B51D13F
:100210008A4217466DD9B2FA82FEBEF1000F0BD0AA
:10022000CEF1200C01FA0EF520FA0CFC02FA0EF7C2
:100230004CEA050C00FA0EF44FEA174A250CBCFBF9
:10024000FAF81FFA87F90AFB18CC45EA0C4508FBB7
:1002500009F3AB420AD9ED1908F1FF3280F023818E
:10026000AB4240F22081A8F102083D44ED1AA4B24D
:10027000B5FBFAF00AFB105544EA054400FB09F906
:10028000A14509D9E41900F1FF3380F00A81A145A5
:1002900040F2078102383C44A4EB090440EA0840DC
:1002A0000021002E61D024FA0EF400233460736024
:1002B000BDE8F0878B4207D9002E54D0002186E894
:1002C00021000846BDE8F087B3FA83F1002940F029
:1002D0008E80AB4202D3824200F2FA80841A65EB30
:1002E00003050120AC46002E3FD086E81010BDE883
:1002F000F08712B90127B7FBF2F7B7FA87FEBEF114
:10030000000F34D1EB1B3A0C1FFA87FC0121B3FB21
:10031000F2F8250C02FB183345EA03450CFB08F301
:10032000AB4207D9ED1908F1FF3002D2AB4200F21F
:10033000D1808046ED1AA3B2B5FBF2F002FB105556
:1003400043EA05440CFB00FCA44507D9E41900F17D
:10035000FF3302D2A44500F2B8801846A4EB0C0487
:1003600040EA08409DE731463046BDE8F087CEF1CF
:10037000200405FA0EF307FA0EF720FA04F83A0CF7
:1003800025FA04F448EA0308B4FBF2F14FEA1845F1
:1003900002FB11441FFA87FC45EA044501FB0CF3FC
:1003A000AB4200FA0EF409D9ED1901F1FF3080F0EB
:1003B0008A80AB4240F2878002393D44EB1A1FFA33
:1003C00088F5B3FBF2F002FB103345EA034500FB6E
:1003D0000CF3AB4207D9ED1900F1FF386FD2AB42F5
:1003E0006DD902383D44EB1A40EA01418FE7C1F173
:1003F000200722FA07F88B4005FA01F448EA0303C4
:1004000020FA07FE4FEA134CFD404EEA040EB5FBFE
:10041000FCF94FEA1E440CFB19551FFA83F844EA15
:10042000054509FB08F4AC4202FA01F200FA01FAB0
:1004300008D9ED1809F1FF3043D2AC4241D9A9F1F6
:1004400002091D442D1B1FFA8EFEB5FBFCF00CFBB0
:1004500010554EEA054400FB08F8A04507D9E418FA
:1004600000F1FF3529D2A04527D902381C4440EAC3
:100470000940A4EB0804A0FB02894C45C6464D4642
:1004800015D312D056B1BAEB0E0364EB050404FA8F
:1004900007F7CB401F43CC40376074600021BDE8B4
:1004A000F0871846F8E69046E0E6C245EAD2B8EB97
:1004B000020E69EB03050138E4E72846D7E740461A
:1004C00091E78146BEE7014678E702383C4445E7BC
:1004D000084608E7A8F102083D442BE7704700BF33
:1004E00038B50E4A0E4B054618784FF47A73B3FBB5
:1004F000F0F31068B0FBF3F000F0A8F8044658B928
:100500000F2D09D8024629464FF0FF3000F05EF863
:10051000044B20461D6038BD012038BD1C01002061
:10052000000000200400002008B50B4B1A6842F4BC
:1005300000721A601A6842F480621A601A6842F403
:1005400080721A60032000F02FF80F20FFF7C8FF19
:1005500002F01AFF002008BD003C0240034A044B91
:1005600011681B780B441360704700BF3C3F0020AC
:1005700000000020014B1868704700BF3C3F00207E
:1005800038B50446FFF7F6FF631C1CBF054B1B780C
:10059000054618BFE418FFF7EDFF401B8442FAD868
:1005A00038BD00BF00000020074AD36823F4E06391
:1005B0001B041B0C43F0BF63000243F4003300F440
:1005C000E0600343D360704700ED00E0174B30B5A7
:1005D000DC68C4F30224C4F10703251D042B28BFE3
:1005E0000423062D4FF0010505FA03F303F1FF3351
:1005F0008CBF033C00241940A14005FA04F4013CDF
:100600002240002842EA01024FEA0212AFBF00F185
:10061000604000F00F00064BD2B2A5BF00F561406C
:10062000D2B21A5480F8002330BD00BF00ED00E0C4
:1006300014ED00E04209012300F01F0003FA00F06E
:10064000014B43F82200704700E100E00138B0F1AF
:10065000807F0AD2064B074A5860F02182F82310A7
:100660000020072298601A6070470120704700BF81
:1006700010E000E000ED00E0044B1A6804280CBF15
:1006800042F0040222F004021A60704710E000E019
:100690002DE9F04F85B00B68DFF8AC81684ADFF8D0
:1006A000AC91019300234FF0010E019C0EFA03FE62
:1006B0000EEA0406B64540F0AE804C6824F0100700
:1006C000022F16D14FEAD30A00EB8A0A03F0070B78
:1006D000DAF820504FEA8B0B4FF00F0C0CFA0BFCA2
:1006E00025EA0C0C0D6905FA0BF545EA0C05CAF86C
:1006F00020504FEA430A0325D0F800B005FA0AF566
:10070000ED4304F0030C0BEA050B0CFA0AFC013F65
:100710004CEA0B0C012FC0F800C011D8876807EA1B
:10072000050BCF6807FA0AFC4CEA0B07876047689D
:1007300027EA0E0EC4F300179F4047EA0E074760F2
:10074000C7683D408F6807FA0AF73D43C560E5007A
:1007500061D54FF0000BCDF80CB0D8F84470394D8E
:1007600047F48047C8F84470D8F8447007F48047CD
:100770000397039F23F0030707F1804707F59C3792
:1007800003F0030CD7F808A04FEA8C0C4FF00F0EC3
:100790000EFA0CFEA8422AEA0E0E43D005F580653B
:1007A000A84241D005F58065A8423FD005F5806597
:1007B000A8423DD005F58065A8423BD048453BD0D6
:1007C00005F50065A84239D005F58065A84214BF3B
:1007D0000825072505FA0CF545EA0E05BD601568E4
:1007E000F74314F4803F0CBF3D4035431560556816
:1007F00014F4003F0CBF3D4035435560956814F438
:10080000801F0CBF3D4035439560D568A40254BF9E
:100810003D403543D5600133102B7FF444AF05B024
:10082000BDE8F08F5D46D5E70125D3E70225D1E786
:100830000325CFE70425CDE70525CBE70625C9E746
:10084000003C014000000240003802400014024019
:100850000AB1816170470904FBE7F0B506468BB029
:10086000002864D00323344680F8B93302F050FEE8
:1008700054F8100B00F0D4FE0FCC6D460FC50FCC12
:100880000FC594E8030085E80300371D97E80E00C4
:10089000306800F085FE0021306800F0C7FE0021BE
:1008A0003346324606F110040125084682F8381016
:1008B000D18701310F2982F8395082F83B0010644A
:1008C0005064D06402F11C02F0D10022D6F800E09E
:1008D000114602F1400083F8F821DA870EEB800020
:1008E00001320F2A83F8F91183F8FB11C3F80012C3
:1008F000C3F80412C3F80C12416003F11C03E8D1E1
:100900000FCC6D460FC50FCC0FC594E8030085E8EA
:100910000300704697E80E0000F0A0FE012386F861
:10092000B933306801F0BDF900200BB0F0BD0120F3
:10093000FBE790F8B833012B10B504460CD0012327
:1009400080F8B833006801F0A0F9206800F062FE7A
:10095000002084F8B80310BD022010BD2DE9F04F2F
:10096000D0F8009087B00446484601F0D4F90290D0
:10097000002840F02E81206801F09FF9002800F047
:100980002881206801F099F9850748BF226820680E
:1009900042BF536903F00203536101F08EF910F472
:1009A00000250AD0206801F08CF909F53066074669
:1009B000A2460025002F40F00F81206801F07DF94C
:1009C00041030BD5206801F084F92646039009F510
:1009D00010680025039B002B40F03F81206801F048
:1009E0006CF900280DDAD9F8043823F00103C9F8AE
:1009F0000438204602F002FE2268536903F00043E7
:100A00005361206801F059F906050BD5D9F808386B
:100A1000D80702D5204602F0D9FD2268536903F4B5
:100A200000635361206801F048F9C10437D509F526
:100A300000667368206823F001037360102100F0E2
:100A4000A9FE616809F51063FF220298884240F010
:100A500092814FF0FF33B361F36943F00113F36107
:100A6000236B002B00F08F81D6F8843043F00B030A
:100A7000C6F88430736C43F00B037364D9F8003804
:100A8000217C206823F4FE63C9F8003804F56F72F6
:100A900001F060F92268536903F4805353612068C0
:100AA00001F00BF982041DD5206801F038F92068A7
:100AB000C36823F47053C36000F095FE002840F033
:100AC0006B812268E0604FF400736361D36843F484
:100AD0001053D360204602F068FD2268536903F486
:100AE00000535361206801F0E8F8C3062BD5226853
:100AF000936923F010039361D9F82060C6F3434350
:100B0000022B06F00F0840F0A88147F6F0731E4252
:100B100014D01C2707FB0847C6F30A163246D7F83D
:100B20000412484601F05BF8D7F804323344C7F8A2
:100B30000432D7F810321E44C7F810622268936955
:100B400043F010039361206801F0B7F8070707D559
:100B5000204602F026FD2268536903F00803536122
:100B6000206801F0AAF8C60208D5E9B2204602F0D2
:100B70004DFD2268536903F480135361206801F02E
:100B80009CF8800208D5E9B2204602F03BFD2268BD
:100B9000536903F400135361206801F08EF841009B
:100BA00007D5204602F036FD2268536903F08043E2
:100BB0005361206801F081F842070AD523685D6817
:100BC0006B0702D5204602F029FD23685A681543B9
:100BD0005D6007B0BDE8F08FF80738D55FFA85FB98
:100BE0005946206801F07DF810F0010F804621D0B1
:100BF000216901239942B3600CD13169DAF800020E
:100C0000C1F31201411ACAF81012DAF804120844AA
:100C1000CAF804025946204602F0B2FC21690129B3
:100C200008D13DB9D4F80C2222B904F56F722068BE
:100C300001F090F818F0080F04D0204602F09AFC5A
:100C40000823B36018F0100F1CBF1023B3600135E8
:100C50007F0820360AF11C0AACE6039BDA0758D558
:100C60005FFA85FB5946206801F045F8C30707463F
:100C700020D5D9F834380121A94023EA0103C9F865
:100C800034380123C8F808302369012B01BF736C85
:100C9000326C9B1873645946204602F07AFC216935
:100CA000012907D135B9E36C23B904F56F722068C7
:100CB00001F050F8380744BF0823C8F80830F90697
:100CC00044BF1023C8F808307A0644BF4023C8F850
:100CD0000830BB0744BF0223C8F808303F0618D5C8
:100CE00023680493F76C336DFF1A336C9F4228BF5F
:100CF0001F46049B03F5106307F1030A03EB45133A
:100D00004FEA9A0A0593059B9B699BB2534508D805
:100D10002FB3039B5B08013503931C3608F12008B1
:100D200058E6326DF36C9342F2D9002BF0D0376C59
:100D300004989B1A9F4228BF1F46237C00935A4663
:100D4000BBB2716C00F037FF736C3B447364336D5E
:100D500007F1030A3B444FEA9A0A3365D3E7049B41
:100D6000012203F5006BD3F83438AA4023EA0203CA
:100D7000CBF83430CDE702989A600130C3F80822EE
:100D80000290203361E6736943F00B0373613369AA
:100D900043F00B03336171E60323E3604023636197
:100DA00000F0F8FB344B354A03449342236804D8DF
:100DB000DA6842F47052DA608CE6314A3149024412
:100DC0008A4203D8DA6842F46052F4E7A0F574026C
:100DD0002D49A2F510528A4203D8DA6842F45052E3
:100DE000E9E7A0F183722949A2F5E7428A4203D8D4
:100DF000DA6842F44052DEE7254A264902448A4234
:100E000003D8DA6842F43052D5E7234A2349024432
:100E10008A4203D8DA6842F42052CCE7204A2149BA
:100E200002448A4203D8DA6842F41052C3E7A0F1C0
:100E3000B7721D49A2F558528A4203D8DA6842F4C3
:100E40000052B8E7194A1A4902448A42DA6894BF44
:100E500042F4E05242F4C052ADE7062B7FF46EAE8E
:100E6000082204F56F7148461C2700F0B8FE07FB06
:100E70000847C6F30A165CE6405327FFFF340C0010
:100E8000401E1BFF3F420F007F4F12001FD6130072
:100E900060B6E5FE5FE3160000D3CEFE3F771B0091
:100EA000C05BB3FEBF9121001F753800E05459FEAE
:100EB000DF9C410090F8B833012B10B5044609D0EF
:100EC000012380F8B833006800F0CFFE002084F8DA
:100ED000B80310BD022010BD70B54EB2002E0446FE
:100EE0004FF01C0501F07F00B5BF05FB004105FB7D
:100EF0000141383101F5FC71C0B2002EB8BFC88085
:100F0000022BCB704FEAD67504BF00230B7108701B
:100F10004D7094F8B8338A60012B09D0012384F80E
:100F2000B833206800F07AFC002084F8B80370BD64
:100F3000022070BD4BB2002B10B54FF01C020446CE
:100F400001F07F00B5BF02FB004102FB01413831D7
:100F500001F5FC71DB0F08704B7094F8B833012B6E
:100F600009D0012384F8B833206800F096FC0020F3
:100F700084F8B80310BD022010BD38B501F07F051C
:100F80001C2404FB050104FB050401F5FC71C4F8F5
:100F90000C320023C4F80422C4F8103284F8F9316A
:100FA00084F8F85103690068012B08BFC4F80822CF
:100FB000DAB21DB900F092FD002038BD00F0C8FC87
:100FC000FAE71C2301F00F0103FB0101B1F8100245
:100FD000704738B501F07F051C2404FB050104FBB4
:100FE00005043831E364002323650123626484F837
:100FF000393084F8385003690068012B08BFA264B7
:10100000DAB21DB900F06AFD002038BD00F0A0FC86
:10101000FAE738B54BB2002B01F07F054FF01C0208
:10102000B5BF02FB050102FB0101383101F5FC717E
:101030000122DB0FEDB28A700D704B7090F8B8335F
:10104000934204460FD080F8B823006800F0D5FD25
:101050002DB904F56F72217C206800F07BFE002022
:1010600084F8B80338BD022038BD38B54BB2002B28
:1010700005464FF01C0201F07F00B5BF02FB005196
:1010800002FB0151383101F5FC71DB0F00248C703B
:1010900008704B7095F8B833012B09D0012385F8FF
:1010A000B833286800F0C8FD85F8B843204638BD3D
:1010B000022038BD006870B5436A21B943EA024393
:1010C0008362002070BD846A002503EB14434E1E2A
:1010D000ECB2B44205F1010506DB3F3100EB8100C3
:1010E00043EA02434360ECE7403400EB8404646865
:1010F00003EB1443ECE703680020596270470000DB
:101100002DE9F341044618B9012002B0BDE8F08191
:101110000368DD0710D42368980758D423681A079A
:1011200000F19A8023685B0700F1B880A269002A69
:1011300040F019810020E8E7A64B9A6802F00C0203
:10114000042A07D09A6802F00C02082A0AD15B68C8
:10115000590207D59F4B1B689A03DCD56368002BA7
:10116000D9D1D1E763689B4DB3F5803F11D12B688E
:1011700043F480332B60FFF7FDF9964D06462B684C
:101180009B03C8D4FFF7F6F9801B6428F7D9032026
:10119000BBE7B3F5A02F04D12B6843F480232B6069
:1011A000E5E72A6822F480322A602A6822F4802245
:1011B0002A60002BDFD1FFF7DDF906462B689F037D
:1011C000A9D5FFF7D7F9801B6428F7D9DFE7814B52
:1011D0009A6812F00C0F07D09A6802F00C02082AE5
:1011E00011D15B685E020ED47A4B1A68950702D55E
:1011F000E268012A88D11A68216922F0F80242EADD
:10120000C1021A608AE7E268734BB2B101221A6028
:10121000FFF7B0F96F4D06462B68980707D52B6886
:10122000226923F0F80343EAC2032B6076E7FFF755
:10123000A1F9801B0228EFD9A9E71A60FFF79AF9F4
:10124000644D06462B6899077FF568AFFFF792F962
:10125000801B0228F6D99AE76269604B7AB10122B5
:101260001A60FFF787F95B4D06466B6F9F073FF5E6
:1012700059AFFFF77FF9801B0228F6D987E71A607C
:10128000FFF778F9534D06466B6F98077FF54AAF25
:10129000FFF770F9801B0228F6D978E74D4B1A6CDE
:1012A00012F0805228D101921A6C42F080521A64D6
:1012B0001B6C03F080530193019B0126484D2B6862
:1012C000D9051BD5A368434D012B27D12B6F43F0C4
:1012D00001032B67FFF74EF93E4D074641F2883870
:1012E0002B6F9B0739D5002E3FF420AF394A136C82
:1012F00023F08053136419E70026DFE72B6843F4DB
:1013000080732B60FFF736F907462B68DA05D9D4CE
:10131000FFF730F9C01B0228F7D938E7052B04D1B5
:101320002B6F43F004032B67D0E72A6F22F00102F2
:101330002A672A6F22F004022A67002BCAD1FFF71E
:1013400019F941F2883807462B6F9807CBD5FFF77C
:1013500011F9C01B4045F7D919E7FFF70BF9C01B7E
:101360004045BDD913E71B4DAB6803F00C03082BB8
:101370003FF4CAAE1B4E0023022A336034D1FFF77C
:10138000F9F807462B6899011ED4226AE3691343D2
:10139000626A43EA8213E26A43EA0263A26A0D4C7C
:1013A0005208013A43EA02436B6001233360FFF7BE
:1013B000E1F8054623689A013FF5BCAEFFF7DAF87D
:1013C000401B0228F6D9E2E6FFF7D4F8C01B02283A
:1013D000D8D9DCE60038024000004742800E474280
:1013E0000070004060004742FFF7C4F804462B68D5
:1013F0009B017FF59FAEFFF7BDF8001B0228F6D9D1
:10140000C5E600BF134908B58B6803F00C03042B35
:1014100003D0082B03D0104808BD104808BD4A6807
:101420004B68496813F4800314BF0C480A48C1F3A1
:10143000881118BF002302F03F02A1FB0001FEF754
:10144000C7FE044B5B68C3F3014301335B00B0FB91
:10145000F3F008BD003802400024F40000127A00C6
:101460002DE9F0410D46044610B90120BDE8F08198
:10147000444B1A6802F00F028A4228D321688F0772
:101480002DD4C80740D43F4B1A6802F00F02954292
:1014900066D3226851076CD4130707D53A4A2169ED
:1014A000936823F4604343EAC1039360FFF7AAFF04
:1014B000354B364A9B68C3F30313D35CD840344B97
:1014C00018600F20FFF70CF80020BDE8F081CAB2C9
:1014D0001A701B6803F00F039942C6D1CEE72A4B5E
:1014E00011F0040F1EBF9A6842F4E0529A600E0792
:1014F00042BF9A6842F460429A609A68A06822F0FB
:10150000F00202439A60BCE762681F4B012A1DD1BA
:101510001B6813F4003FA8D01B4EB36823F00303ED
:101520001343B360FFF726F841F288380746B368E3
:10153000626803F00C03B3EB820FA4D0FFF71AF834
:10154000C01B4045F3D90320BDE8F081911E01295D
:101550001B6802D813F0007FDDE713F0020FDAE713
:10156000EAB21A701B6803F00F039D427FF47DAF4F
:101570008FE70549E0688B6823F4E05303438B60F1
:101580008AE700BF003C024000380240E93A000808
:101590001C010020014B1868704700BF1C0100208F
:1015A00084B038B505AD85E80E000A9B012B0446D2
:1015B00026D1836B23F480338363C36823F48403CD
:1015C00023F04003C360C36823F44013C360119B3E
:1015D000012B02BFC36843F48013C36000F0DEFB3D
:1015E000089B012B07D1A36843F00603A360A368FF
:1015F00043F02003A360BDE83840002004B07047EA
:10160000C36843F04003C36000F0C8FB4FF480336D
:10161000A363E5E7836843F001038360002070471C
:10162000836823F0010383600020704708B5C36816
:10163000012923F0C043C36008D1C36843F00053BD
:10164000C3603220FEF79CFF002008BD0029F8D1BE
:10165000C36843F08043C360F3E7000084B02DE922
:10166000F041044607A880E80E00119E0A9FA36B74
:101670008846A6B943F40013A3630023C4F8003ED0
:10168000D4F80038C4F800380C9B012B04F5006531
:101690005ED1099939B9204600F09EF807E043F47D
:1016A0000023A363E9E71946204600F095F81021CE
:1016B000204600F06FF8204600F07EF800234FF03F
:1016C000FF322B6119466B614FF09040AA614FF0D9
:1016D000FF0EEB6104F5106243453BD1002104F598
:1016E000306208464FF0904E4FF0FF0C8B423ED1D7
:1016F0002B69012F23F480732B6108D1234B2B63BB
:101700002B6B43F4803343F003032B632B6B0023D9
:10171000A3616FF0804363611FB9A36943F01003B5
:10172000A361A2691A4B1343A3610D9B1BB1A3696B
:1017300043F00803A361012E01BFA36943F0804376
:1017400043F00403A361BDE8F041002004B07047FA
:101750000321A0E7D2F800C0BCF1000FB4BF1060B5
:10176000116001331161C2F808E02032B4E7D2F809
:101770000080B8F1000FB4BFC2F800E01060013182
:101780001061C2F808C02032B0E700BF000180003D
:1017900000383C80890141F02001064A0161013A8C
:1017A00005D0036913F02003F9D1184670470320D0
:1017B000704700BF410D03001023064A0361013A40
:1017C00005D0036913F01003F9D1184670470320C0
:1017D000704700BF410D0300D0F800381943C0F82E
:1017E00000180020704700F50062D0F8080810F0DB
:1017F000060012D0936803F00603022B0CD0936806
:1018000003F00603062B07D0936803F00603042BAE
:1018100014BF0020022070470320704730B54B787A
:101820000C78D0F81C5800F50062012B1BD1A340A6
:101830009BB22B4300F51060D36100EB44131A6890
:1018400012040ED48A68C8781D68C2F30A0242F0F6
:10185000805242F4004242EA804040EA84502843E9
:101860001860002030BD4FF48033A34000F5306095
:101870002B4300EB4410D36103681B04F1D48B6845
:10188000C9780268C3F30A0343F0805343F400436A
:1018900043EA814313430360E3E700F001B800002B
:1018A00070B54B78012B0E46054609784FF02003A2
:1018B00026D100F5106213FB01231A6822F40042BE
:1018C0001A604FF000621A604FF080421A601F4A9F
:1018D000013A01D1032070BD9C6814F08044F7D117
:1018E00010212846FFF756FF3178D5F81C28012330
:1018F0008B409BB222EA0303C5F81C38204670BD1A
:1019000000F5306213FB01231A6822F400421A60CA
:101910004FF000621A604FF080421A600B4A013AA1
:10192000D8D0986810F01000F9D1D5F8043843F4F5
:101930008063C5F80438D5F81C384FF480328A40EB
:1019400023EA0203C5F81C3870BD00BF410D030037
:10195000F7B54B780C78012B4B6977D1202600F531
:10196000106516FB04542669002B38D126F0FF566B
:1019700026F4C0162661266946F4002626612669EB
:10198000F60CF6042661012A50D10C780E6905EB9D
:1019900044146661CE78012E0FD1D0F808480F7834
:1019A00014F4807F4FF0200414FB075427680CBF09
:1019B00047F0005747F0805727600F7805EB471531
:1019C000012E2C6844F004442C6005D100929BB297
:1019D0003A46C96800F0EFF8002003B0F0BDF60CFD
:1019E000F604266126698F6826F0FF5626F4C01695
:1019F0002661DE19013EB6FBF7F7374ED4F810E04A
:101A000006EAC74646EA0E0626612769C3F31206B0
:101A10003E432661CE78012E5AD1266926F0C04673
:101A20002661266946F000562661ACE7CE78012E85
:101A3000B3D0002BAED091F800E0D0F83478012478
:101A400004FA0EF43C43C0F83448A3E700F53065CF
:101A500005EB44142569ED0CED042561256925F09D
:101A6000FF5525F4C01525618D68FBB92369C5F3C1
:101A700012051D432561236943F400232361012AD4
:101A800004BFCB686361CB78012B0AD1D0F808384A
:101A900013F4807F23680CBF43F0005343F080535E
:101AA0002360236843F00443236095E70A4E2769C7
:101AB0002B44013BB3FBF5F306EAC3463E432661E4
:101AC0009BB226695D43C5F3120535432561D6E710
:101AD000012AAED159E700BF0000F81F4B78012B57
:101AE00070B50B784D6943D1202400F5106614FBC6
:101AF00003631C69CDB924F0FF5424F4C0141C61A5
:101B00001C6944F400241C611C69E40CE4041C619D
:101B10000D7806EB4513012A1C6844F004441C6050
:101B20001BD10A695A61002070BDE40CE4041C61F9
:101B30001C6924F0FF5424F4C0141C618C68A54275
:101B400088BF4C611C6944F400241C614C691D6908
:101B5000C4F312042C431C61DAE74B69002BE2D07A
:101B6000D0F834280123AB401343C0F83438DAE707
:101B700000F5306000EB43100369DB0CDB0403610C
:101B8000036923F0FF5323F4C01303618B6805B18D
:101B90004B61046944F4002404610469C3F3120333
:101BA0002343012A036104BFCB684361036843F008
:101BB00004430360B7E710B59DF808404CB9033300
:101BC00000F5805023F0030300EB02320B449942EE
:101BD00001D1002010BD51F8040B1060F7E703326B
:101BE00022F003020A4400F58050914201D10846D8
:101BF0007047036841F8043BF7E74B780A78012BFC
:101C00004FF020030BD100F5106013FB02000368B6
:101C1000002B0BDB036823F08043036006E000F534
:101C2000306013FB02000368002BF3DA036843F40F
:101C300000130360002070474B780A78012B0CBF1B
:101C400000F5106000F53060202313FB02000368EC
:101C500023F400130360CB78023B012B9EBF036883
:101C600043F08053036000207047D0F8003823F41D
:101C7000FE63C0F80038D0F80038090101F4FE61B5
:101C80001943C0F800180020704708B5D0F8043890
:101C900023F00203C0F804380320FEF771FC002093
:101CA00008BD08B5D0F8043843F00203C0F8043882
:101CB0000320FEF765FC002008BD426980691040E2
:101CC0007047D0F8183800F50060C0691840000C63
:101CD0007047D0F8183800F50060C069184080B22D
:101CE000704700F5306303EB411100F500608A682E
:101CF00040691040704710B5D0F81048D0F834381B
:101D000000EB4110CB4000F51060DB018068DBB2D6
:101D10002343184010BD406900F001007047D0F81F
:101D2000003923F4FF6323F00703C0F8003900F5FE
:101D300000639A6802F00602042A02BFD0F8002964
:101D400042F00302C0F800295A6842F480725A60D7
:101D50000020704710B50024C0F8104BD0F8104B8D
:101D600044F40024C0F8104BD0F8104B44F0180491
:101D7000C0F8104BD0F8104B012900F5306344F047
:101D8000C04408BF4FF08023C0F8104B04BFC0F818
:101D9000142BC0F8003B002010BD00000A4B013B93
:101DA00001D1032070470269002AF8DA0369064A64
:101DB00043F001030361013AF3D0036913F0010317
:101DC000F9D11846704700BF410D0300D0F8183212
:101DD0001BB10020C3F81402704702207047D0F8EE
:101DE0001C3210B5D0F818425BB194F80002FF28FD
:101DF00007D09B6894F8012221469847FF2384F876
:101E00000032002010BD00004323038000487047CB
:101E100040000020432303800048704784000020D6
:101E20004323038000487047D40000200A23038026
:101E300000487047C800002038B50546D0F8184261
:101E400001F0AAFCD5F81832C4F80C024BB1D5F851
:101E50001C32D4F80402DB6804F5037198470020B3
:101E600038BD022038BD0000F8B50F7817F06003C8
:101E700006460C4623D0202B19D1CA884B78C2B114
:101E80003906D0F818520BD5D0F81C1218468F68B6
:101E90002946B847E2882946304600F084FB06E030
:101EA00085F8003285F80122294600F091FB0020D8
:101EB000F8BDD0F81C0284681846A047F7E74B78B5
:101EC0000A2BF4D101220149E7E700BFE401002019
:101ED00010B58121044601F0F7FB0121204601F0F5
:101EE000F3FB8221204601F0EFFBD4F8183253B106
:101EF000D4F81C325B689847D4F8180201F0FAFC59
:101F00000023C4F81832002010BDF8B5037C044645
:101F10007BBB4FF400730222812101F0C5FB4FF41B
:101F2000007302220121204601F0BEFB0823032298
:101F30008221204601F0B8FB4FF4077001F0D2FC7B
:101F40000646C4F8180220B3D4F81C321B68984720
:101F5000277C0025C6F81452C6F8185287B94FF4EA
:101F60000073D6F804220121204601F007FC384610
:101F7000F8BD40230222812101F096FB4023D0E7E7
:101F80004023D6F804220121204601F0F7FB284621
:101F9000F8BD0120F8BD19B1C0F81C12002070472F
:101FA00002207047D0F818320020C3F80812C3F896
:101FB00010227047D0F818320020C3F8041270477E
:101FC000D0F8182210B562B1047C44B94FF4007304
:101FD000D2F80422012101F0D1FB002010BD4023E2
:101FE000F6E7022010BD08B580B1D0F8143213B165
:101FF0000023C0F8143209B1C0F81012012380F890
:10200000FC31027001F00EFB002008BD022008BD6B
:1020100019B1C0F81412002070470220704708B5AB
:1020200001F034FB002008BD08B5D0F814320BB91C
:10203000022008BD1B6898470028F9D108BD08B5E3
:10204000D0F814325B689847002008BD38B50446C4
:1020500000F50275284600F076FA012394F808127C
:10206000C4F8F431B4F80E32C4F8F83101F01F03AB
:10207000012B0ED007D3022B10D001F08001204697
:1020800001F030FB03E02946204600F0E7F800208D
:1020900038BD2946204600F0DBF9F8E729462046FE
:1020A00000F0EEF9F3E738B50446154611BBD0F859
:1020B000F431032B0FD1D0F80C31D0F8102193421A
:1020C0000BD99B1A9A4228BF1A46C0F80C3192B21B
:1020D000294600F08CFA002038BDD0F814321B6974
:1020E00023B190F8FC21032A00D19847204600F044
:1020F00086FAF0E7D0F814329B69002BEBD090F809
:10210000FC21032AE7D19847E5E770B5134604465A
:102110000E4600293DD1D0F8F421022A0FD1C5691D
:10212000026A954214D9AA1AC261194692B200F005
:1021300047FA33461A461946204601F01FFB94F829
:102140000032012B02D1002384F80032002070BD40
:102150008369B3FBF2F502FB153565B99A420AD8DB
:10216000D0F8F821934206D22A4600F029FAC4F8A2
:10217000F8512B46DEE7D4F81432DB682BB194F823
:10218000FC21032A01D120469847204600F042FA5C
:10219000D5E7D0F814325B69002BD7D090F8FC213A
:1021A000032AD3D19847D1E738B500220446114617
:1021B0004025402301F078FA2B46C4F81051002244
:1021C0008021204601F070FA012384F8FC31D4F814
:1021D000183225622BB1D4F8143221795B6820467D
:1021E0009847002038BD01740020704790F8FC31FA
:1021F00080F8FD31042380F8FC310020704790F80E
:10220000FD3180F8FC310020704708B590F8FC21C2
:10221000032A04D1D0F81432DB6903B198470020B7
:1022200008BD00207047002070470020704708B5A7
:10223000012280F8FC21D0F81422017952689047DD
:10224000002008BD10B58021044601F04BFA20465D
:102250000021BDE8104001F045BA000037B54B78C9
:1022600004460D46092B79D8DFE813F0C900E500D4
:102270007800D90078006D000A007800B9008D0060
:102280004B881A0A013A062A68D8DFE802F0041CD3
:10229000296767495200D0F810321B68207C0DF185
:1022A00006019847BDF80620002A67D0EB88002B6E
:1022B00064D09A4228BF1A46ADF80620014620464F
:1022C00000F071F95AE0027CD0F8143232B99B6AFE
:1022D0000DF10600984702234370E3E7DB6AF7E756
:1022E000DBB2052B3AD8DFE803F003070B0F131717
:1022F000D0F810325B68D1E7D0F810329B68CDE798
:10230000D0F81032DB68C9E7D0F810321B69C5E796
:10231000D0F810325B69C1E7D0F810329B69BDE795
:10232000037CDBB9D0F814320DF106005B6B9847E3
:10233000B8E7037C93B9D0F814320DF106001B6B9B
:1023400098470723C8E78B8843B9CB8833B990F8FF
:10235000FC318D78032B05F07F0503D12046FFF774
:1023600071FF0BE080F8FE51294601F0EBF92046A1
:1023700000F045F92DB1022384F8FC31002003B0B0
:1023800030BD0123F8E78978304D01292970E5D85F
:1023900090F8FC31022B0CD0032BDFD1B1B9022312
:1023A00080F8FC314160FFF74AFE204600F027F933
:1023B000E4E70029F9D001210323416080F8FC31D2
:1023C0002046FFF731FE0228EFD1C7E74168012917
:1023D000EBD0C9B2FFF733FE29786160F0E7CA8815
:1023E000012ABBD190F8FC31022B03D0032BB5D1CD
:1023F000011D64E70146002341F8083F5FE790F8BC
:10240000FC31023B012BA9D80123C360D0F8043270
:102410000BB10323C360022204F10C014FE74B8888
:10242000012BABD1C4F80432D4F8143229469B688E
:1024300020469847B9E790F8FC31023B012B8DD834
:102440004B88012B9AD10023ECE700BFE501002067
:1024500038B590F8FC31032B04460D460DD10B79AD
:10246000012B0AD8D0F814329B689847EB8813B92F
:10247000204600F0C4F8002038BDFFF7E3FEFAE77D
:1024800070B50A788E8802F06002202A04460D4654
:10249000F3B205D1D0F814329B689847002070BD84
:1024A0004A78012A1CD02AD3032AF7D190F8FC21BC
:1024B000022A40D0032A02D0FFF7C4FEEEE74A8882
:1024C00022B95E0602D0194601F00CF9D4F8143294
:1024D00029469B6820469847204600F090F8DDE7A3
:1024E00090F8FC21022A26D0032AE5D14A88002A46
:1024F000D4D15906F0D0194601F002F9E6E790F878
:10250000FC21022A17D0032AD6D103F07F0516F04A
:10251000800F00EB0515194614BF143505F58275BB
:1025200001F0FCF868B101232B6002222946204605
:1025300000F039F8B2E75A06B0D0194601F0D2F8E7
:10254000ACE72860F1E70B7803704B784370CA78EA
:102550008B7803EB022343804A790B7903EB022348
:102560008380CA798B7903EB0223C380704730B52F
:1025700088B105462B1A15F8014BDBB2002CF9D1B6
:102580005B00023313800B7003234B70013802236E
:1025900010F8015F05B930BD5A1CD2B2CD540233D8
:1025A000DBB28C54F4E710B513460222C0F8F421D4
:1025B00083610A46C361002101F0D2F8002010BDFA
:1025C00008B513460A46002101F0CAF8002008BDEC
:1025D00010B513460322C0F8F421C0F808310A46AA
:1025E000C0F80C31002101F0C9F8002010BD08B579
:1025F00013460A46002101F0C1F8002008BD08B5C5
:102600000423C0F8F43100231A46194601F0A8F853
:10261000002008BD08B50523C0F8F43100231A4690
:10262000194601F0ABF8002008BD08B500F0EEFB3C
:10263000002008BD30B5B0F90840028A0B4690E88A
:10264000220085B0842C14BF0334002403A8019019
:102650000094284600F004FB01280CBF03980020DA
:1026600005B030BD08B5002808BF012000F01CFDF2
:10267000002008BD08B500F0C7FD012803D0BDE863
:10268000084000F007B908BD00F1080343604FF0AF
:10269000FF32C36003610023826003607047002340
:1026A0000361704743684B609A688A609A6851601A
:1026B0009960036808610133036070470A68531C1E
:1026C00030B50AD103695A684A6091608B605960DD
:1026D000036808610133036030BD00F108035C68E2
:1026E0002568AA42EFD32346F9E741688268036967
:1026F0008A60826851605968884208BF5A60002227
:102700000261186801381860704700000A4B1B68A6
:10271000013308D04FF0500383F31188BFF36F8F5C
:10272000BFF34F8FFEE74FF0500383F31188BFF3E1
:102730006F8FBFF34F8FFEE7180100200648006837
:10274000006880F3088862B661B6BFF34F8FBFF3AD
:102750006F8F00DF00BF000008ED00E0DFF80C0025
:10276000016841F4700101607047000088ED00E0ED
:102770004FF0807340F8043C074B40F80C3C21F0CC
:1027800001016FF0020340F8081C40F8202C40F8CB
:10279000243C4438704700BF0D27000800000000AB
:1027A000074B19680868B0E8F04F80F30988BFF359
:1027B0006F8F4FF0000080F311887047AFF30080F7
:1027C000043E00204FF0500383F31188BFF36F8F56
:1027D000BFF34F8F0A4A13680133012B13600DD1E9
:1027E000084B1B6813F0FF0F08D04FF0500383F322
:1027F0001188BFF36F8FBFF34F8FFEE7704700BFA5
:102800001801002004ED00E0084A136843B94FF0B6
:10281000500383F31188BFF36F8FBFF34F8FFEE731
:10282000013B13600BB983F3118870471801002036
:10283000EFF30980BFF36F8F154B1A681EF0100F6E
:1028400008BF20ED108A20E9F04F10604DF8043DDC
:102850004FF0500080F31188BFF34F8FBFF36F8F9D
:1028600000F080FC4FF0000080F3118808BC19686C
:102870000868B0E8F04F1EF0100F08BFB0EC108AE7
:1028800080F30988BFF36F8F704700BFAFF30080FC
:10289000043E002008B54FF0500383F31188BFF3C6
:1028A0006F8FBFF34F8F00F0F5FA18B1034B4FF065
:1028B00080521A60002383F3118808BD04ED00E004
:1028C000064B4FF47A721B68B3FBF2F3044A013BE8
:1028D0001360044B07221A60704700BF1C010020E0
:1028E00014E000E010E000E0314B324A13B5196803
:1028F000914208D14FF0500383F31188BFF36F8FDB
:10290000BFF34F8FFEE71A682B4B9A4208D14FF066
:10291000500383F31188BFF36F8FBFF34F8FFEE730
:10292000264B1A78D2B20192FF221A701B78244AE1
:10293000DBB28DF803309DF8033003F050031370C1
:10294000204B07221A6000219DF80300000602F1C7
:10295000FF3423D401B11A601A68120202F4E06253
:102960001A60019B154ADBB21370174B1A6842F4C8
:1029700070021A601A6842F070421A60FFF7A0FFF6
:10298000124B00221A60FFF7E9FE114A136843F068
:1029900040431360FFF7D2FEFFF7B8FE9DF8032017
:1029A0005200D2B28DF8032001212246CCE700BFAD
:1029B00000ED00E071C20F4170C20F4100E400E081
:1029C000E6010020E801002020ED00E018010020D1
:1029D00034EF00E010B50F4B1A68824218D35C68E0
:1029E0001919884201BF416818460919596044689D
:1029F00001198A4207D1084909688A421FBF5168F4
:102A00001268091941609842026018BF186010BD31
:102A10001346E1E7FC3D0020EC0100202DE9F041E8
:102A2000044600F02FFA4049404D0B680BBB404A6A
:102A300056071FBFD01D20F0070002F570531B1A68
:102A400014BF02464FF470531344083B23F00703AE
:102A5000384E0B6000207060326058601860981A21
:102A60001360354B50601860344B18604FF00043D2
:102A70002B602F68274216D1002C41D004F10803A7
:102A800058071CBF23F00703083363B12B4A1668AD
:102A9000B342904607D8274A15686868834204D82D
:102AA00009688D4207D100242AE02C68002CF7D059
:102AB0002A462546F1E7296814681160C21A102ACF
:102AC0000FD9E818410708D04FF0500383F311885D
:102AD000BFF36F8FBFF34F8FFEE742606B60FFF76E
:102AE00079FF15496B680868F61A1F4386424FF054
:102AF0000003C8F8006038BF0E6008346F602B60B8
:102B000000F05AFA0CB900F090FB630708D04FF0C0
:102B1000500383F31188BFF36F8FBFF34F8FFEE72E
:102B20002046BDE8F08100BFEC010020F03D002010
:102B3000F0010020FC3D0020F83D0020F43D002085
:102B400010B5044670B3184A50F8043C126813429A
:102B500008D14FF0500383F31188BFF36F8FBFF399
:102B60004F8FFEE750F8081C41B14FF0500383F33C
:102B70001188BFF36F8FBFF34F8FFEE723EA020385
:102B800040F8043C00F07EF9084A54F8043C11680F
:102B9000A4F108000B441360FFF71CFFBDE81040D0
:102BA00000F00ABA10BD00BFF03D0020F43D002047
:102BB000064A13681968064B19B94FF0FF321A60BC
:102BC00070471268D268D2685268F8E7083E002061
:102BD000E03E0020F8B51B4B1B4E1D6804463068D4
:102BE00004300F46FFF781FD334640B93168174E78
:102BF000C96A32680120884022EA00023260621C01
:102C000007D137B1196812480431BDE8F840FFF721
:102C100049BD2C441A68A542546007D90D4A106872
:102C20001968BDE8F8400431FFF748BD0A4A10684A
:102C300019680431FFF742FD084B1A68944238BF07
:102C40001C60F8BD283F0020043E0020B03E00205C
:102C5000003F00200C3E0020083E0020E03E002007
:102C60002DE9F84F4FEA820A804650460D469946B4
:102C70000B9EFFF7D3FE0746002800F09C805420EF
:102C8000FFF7CCFE0446002800F09280524607630E
:102C9000A521384600F036FE236BAAF1040A9A44B7
:102CA0002AF0070A6B1E04F134020F35597802F836
:102CB000011B13F8011F09B1AB42F7D10A9D062D84
:102CC00028BF06254FF0000B271DE56265643846D6
:102CD00084F843B0C4F848B0FFF7E1FCC5F107053C
:102CE00004F11800FFF7DBFCC4F84CB02461A561C7
:102CF000646284F850B04A4641465046FFF738FDBA
:102D0000206006B13460FFF75DFD324B324E1A6829
:102D1000DFF8F08001321A603568002D4ED1346042
:102D20001B68012B1DD108EB05001435FFF7ACFC27
:102D30008C2DF8D1DFF8D090284D4846FFF7A4FC41
:102D40002846FFF7A1FC2648FFF79EFC2548FFF721
:102D50009BFC2548FFF798FC244BC3F80090244BBC
:102D60001D60244A24491368086801331360E26A2D
:102D7000012505FA02F3034314200B6000FB0280D7
:102D80003946FFF78FFCFFF73FFD1C4B1B6863B113
:102D90003368DA6AE36A9A4207D2194B4FF08052DD
:102DA0001A60BFF34F8FBFF36F8F2846BDE8F88FCF
:102DB0003846FFF7C5FE4FF0FF35F6E70F4B1B68AF
:102DC000002BCED13368DA6AE36A9A4298BF346046
:102DD000C7E700BF9C3E0020043E0020C83E002004
:102DE000E83E0020143F0020003F0020083E002065
:102DF0000C3E0020AC3E0020B03E0020FC3E0020F7
:102E000004ED00E0103E0020B43E002013B5174B47
:102E10000193002400942346802215491548FFF7AA
:102E20001FFF012814D14FF0500383F31188BFF323
:102E30006F8FBFF34F8F104B4FF0FF321A600F4B65
:102E400018600F4B1C6002B0BDE81040FFF74CBD8E
:102E5000013008D14FF0500383F31188BFF36F8F17
:102E6000BFF34F8FFEE702B010BD00BFDC3E002075
:102E7000D83A0008F1300008E03E0020FC3E002077
:102E8000283F0020024A136801331360704700BFD7
:102E9000A83E00202DE9F84F3C4B1B68002B53D176
:102EA0003B4B1C6801341C60BCB93A4B1A68126871
:102EB00042B14FF0500383F31188BFF36F8FBFF31C
:102EC0004F8FFEE7344A1968106818601160334A62
:102ED000136801331360FFF76BFE314D314F2B68E0
:102EE0009C424FF0000B3ED3DFF8A880DFF8C4907F
:102EF000D8F80020126872BB4FF0FF322A6032E02F
:102F000006F1040A5046FFF7F0FBB16A19B106F169
:102F10001800FFF7EAFBF06AD9F80030012202FA44
:102F200000F11943204BC9F800104FF0140E514620
:102F30000EFB0030FFF7B6FB3868F16AC26A9142B7
:102F400028BF4FF0010BD3E7184A13680133136011
:102F50004FF0000B11E0D8F80020D268D6687168F5
:102F60008C42CDD229603A680F4BD16A14224A4371
:102F70009A58022A28BF4FF0010B0D4A1268002A06
:102F800018BF4FF0010B5846BDE8F88FA83E00204F
:102F9000283F0020083E00200C3E0020E43E002098
:102FA000E03E0020043E0020103E0020A43E002011
:102FB0002C3F0020B03E00202DE9F843314C23681F
:102FC00043B94FF0500383F31188BFF36F8FBFF302
:102FD0004F8FFEE7FFF7F6FB2368013B2360246871
:102FE0002CB10024FFF710FC2046BDE8F883264BE7
:102FF0001B68002BF5D0DFF8A890244FDFF8A480E1
:10300000D9F80030E3B90CB1FFF7D2FD204D2C68A0
:1030100044B1204E0127FFF73DFF00B13760013C6E
:10302000F9D12C601B4B1B68002BDAD01A4B4FF0E8
:1030300080521A60BFF34F8FBFF36F8F0124D1E727
:10304000D9F80C30DC68261D04F11800FFF74DFBA1
:103050003046FFF74AFBE26A3968012505FA02F3B8
:1030600014200B4300FB028031463B60FFF71AFB44
:103070000A4BE26A1B68DB6A9A4224BF054B1D605B
:10308000BEE700BFA83E00209C3E0020B03E0020CE
:10309000A43E00202C3F002004ED00E0043E002070
:1030A000E83E0020103E002008B540B90E4B4FF01E
:1030B00080521A60BFF34F8FBFF36F8F08BD0B4B69
:1030C000196841B14FF0500383F31188BFF36F8F3C
:1030D000BFF34F8FFEE7FFF7D5FEFFF77BFDFFF74E
:1030E0006BFF0028E2D008BD04ED00E0A83E002000
:1030F00008B5174E174C236863B9174B1B68012B93
:10310000F8D9164B4FF080521A60BFF34F8FBFF3C0
:103110006F8FEFE7FFF7B6FE3568FFF74DFF002D25
:10312000E9D0FFF74FFBF368DD68281DFFF7DDFAF4
:103130000B4A1368013B13602368013B2360FFF7D0
:1031400063FB286BFFF7FCFC2846FFF7F9FCD2E78E
:10315000143F0020A03E0020103E002004ED00E0BF
:103160009C3E002038B5234B1A68234B12B1012234
:103170001A6038BD214C1A6023681B6B1A68B2F1C3
:10318000A53F0BD15A68B2F1A53F07D19A68B2F1B9
:10319000A53F03D1DB68B3F1A53F04D020682168C7
:1031A000343100F041F8164B1B68B3FA83F3DBB2FD
:1031B000C3F11F03142213495A4388188D5845B987
:1031C0004FF0500383F31188BFF36F8FBFF34F8F1E
:1031D000FEE7456808326D6845600A44954204BFC1
:1031E0006A684260142202FB03135B68DB68236099
:1031F00038BD00BFA83E00202C3F0020043E002028
:10320000B03E0020103E0020054B1B6833B1054B3B
:103210001B68002B0CBF0220002070470120704764
:10322000FC3E0020A83E00207047704708B500F023
:103230002DF90120FFF716FAFBE7000070B594B0F6
:10324000274B002101911A6C42F080521A641B6CCA
:1032500003F080530193019B224B02911A6842F4C0
:1032600080421A601B6803F480430293029B01238F
:1032700008934FF4803309934FF480030F9348234E
:1032800002240426119308A803230E941096129486
:103290001393FDF735FF00B1FEE705904FF480531F
:1032A000079021460F2503A8049403950693FEF783
:1032B000D7F8044600B1FEE7FEF76CF94FF47A73D5
:1032C000B0FBF3F0FDF7C2F93046FDF7D5F9224621
:1032D00029464FF0FF30FDF779F914B070BD00BFFB
:1032E000003802400070004000B589B00024FDF7AE
:1032F0001BF9FFF7A3FF1F4B00941A6B1E481F4ECC
:1033000042F080021A631A6B02F080020092009A67
:1033100001941A6B42F008021A631A6B02F0080259
:103320000192019A02941A6B42F001021A631B6B1C
:1033300003F00103224602934FF47041029BFDF714
:1033400087FA4FF47043039303A901230A480493B7
:1033500005940694FDF79CF90FCE03AD0FC53368B5
:103360002B60214603A8FFF765F9054B1860FFF7AE
:103370005CF9FEE700380240000C0240C43A000845
:10338000403F0020FEE7000013B5224B00240094CC
:103390005A6C42F480425A645A6C02F480420092A1
:1033A000009A01941A6C42F080521A641B6C03F06C
:1033B000805301930320019BFDF7F6F82246214636
:1033C0006FF00B00FDF702F9224621466FF00A006C
:1033D000FDF7FCF8224621466FF00900FDF7F6F8EC
:1033E000224621466FF00400FDF7F0F82246214600
:1033F0006FF00300FDF7EAF822460F216FF001009D
:10340000FDF7E4F822460F214FF0FF30FDF7DEF81C
:1034100002B010BD003802407047FEE7FEE7FEE74D
:10342000FEE7704708B5FDF799F8BDE80840FFF7DB
:1034300021B900000148FDF791BA00BF6851002092
:103440000F49D1F8883043F47003C1F888300D4B30
:103450001A68002042F001021A6098601A6822F08F
:10346000847222F480321A60074A5A601A6822F481
:1034700080221A60D8604FF000638B60704700BFF5
:1034800000ED00E0003802401030002410B5094C77
:10349000094900222046FEF7A6FD08492046FEF70E
:1034A000B7FD20460649FEF776FD2046BDE81040F0
:1034B000FEF7B5BD443F0020300100200800002089
:1034C00020010020002070470020704710B5054CF7
:1034D00001462046FEF76EFD2046FEF771FD0020F6
:1034E00010BD00BF443F002010B5064C0649002225
:1034F0002046FEF757FD05492046FEF75BFD0020FC
:1035000010BD00BF443F00206849002068410020F2
:1035100010B50368B3F1A04F86B025D14FF4C05366
:1035200001930223029303230024049301A90A2395
:103530000E4805930394FDF7ABF80D4B5A6B42F020
:1035400080025A6300945A6C42F480425A645B6C65
:1035500003F480430093432022460521009BFDF79E
:1035600035F84320FDF766F806B010BD00000240B4
:103570000038024000F56F71D0F8EC03FEF766BD2D
:103580001C2303FB0103D0F8EC03D3F80422FEF75D
:103590008ABD1C2303FB0103D0F8EC035A6CFEF731
:1035A000B4BDD0F8EC03FEF730BE10B5C1680446D8
:1035B000003118BF0121D0F8EC03FEF714FED4F857
:1035C000EC03BDE81040FEF7EFBD000010B5044667
:1035D000D0F8EC03FEF70AFE2268D2F8003E43F072
:1035E0000103C2F8003E236A23B1034A136943F082
:1035F0000603136110BD00BF00ED00E0D0F8EC033E
:10360000FEF7FDBDD0F8EC03FEF70DBED0F8EC03DD
:10361000FEF707BED0F8EC03FEF707BED0F8EC03C8
:10362000FEF705BE08B5027852BB164B0421C3F85D
:10363000EC03C0F820324FF0A04083E803000221E1
:103640001846D9601A615A619961DA611A625A6240
:10365000DA621A63FDF701F920B14FF4A5710A4847
:10366000FFF790FE80210748FDF745FD402200212D
:103670000448FDF71FFD802201210248FDF71AFDD5
:10368000002008BD68510020FD3A000808B5D0F8B8
:103690002002FDF74EF903289ABF024B185C022066
:1036A00008BD00BFF93A000810B51C46D0F820024A
:1036B00013462246FDF710FC03289ABF014B185C05
:1036C000022010BDF93A000808B5D0F82002FDF735
:1036D00031FC03289ABF024B185C022008BD00BFD2
:1036E000F93A000808B5D0F82002FDF792FC03284B
:1036F0009ABF024B185C022008BD00BFF93A0008CF
:1037000008B5D0F82002FDF7B0FC03289ABF024BA1
:10371000185C022008BD00BFF93A000811F0800FC4
:10372000D0F820324FF01C021BBF01F07F0102FBDA
:10373000013102FB013191F83A0008BF91F8FA011A
:103740007047000008B5D0F82002FDF7B3FB03284E
:103750009ABF024B185C022008BD00BFF93A00086E
:1037600008B5D0F82002FDF734FC03289ABF024BBD
:10377000185C022008BD00BFF93A000808B5D0F86F
:103780002002FDF7FAFB03289ABF024B185C0220C7
:1037900008BD00BFF93A000808B5D0F82002FDF7CF
:1037A00010FC08BD12230B80004870474C0100201C
:1037B00004230B80004870476001002010B5044CC2
:1037C00004480A462146FEF7D2FE204610BD00BF3F
:1037D00058550020293B000810B5044C04480A46FF
:1037E0002146FEF7C4FE204610BD00BF58550020FC
:1037F0003C3B000810B5044C04480A462146FEF73D
:10380000B6FE204610BD00BF58550020523B0008B0
:1038100010B5044C04480A462146FEF7A8FE20468F
:1038200010BD00BF58550020103B000810B5044CD7
:1038300004480A462146FEF79AFE204610BD00BF06
:10384000585500201B3B0008DFF834D0002103E06E
:103850000C4B5B58435004310B480C4B42189A42B6
:10386000F6D30B4A02E0002342F8043B094B9A428C
:10387000F9D3FFF7E5FD00F011F8FFF735FD7047CC
:1038800000000220703B000800000020C80100205A
:10389000C80100205C570020FEE7000070B50D4E07
:1038A0000D4CA41BA4100025A54209D10B4E0C4CB5
:1038B00000F0FCF8A41BA4100025A54205D170BDA2
:1038C00056F8253098470135EEE756F825309847E9
:1038D0000135F2E7683B0008683B0008683B0008D8
:1038E0006C3B0008024B0146186800F061B800BF4D
:1038F00064010020024B0146186800F00BB800BFBD
:103900006401002002440346934200D1704703F84B
:10391000011BF9E738B50546002945D051F8043CAC
:103920000C1F002BB8BFE41800F0B0F81F4A136852
:10393000104633B9636014602846BDE8384000F093
:10394000A6B8A3420CD921686218934204BF1A6832
:103950005B68636004BF521822600460ECE71346A2
:103960005A680AB1A242FAD919685818A0420BD174
:1039700020680144581882421960DDD110685268ED
:103980005A6001441960D7E702D90C232B60D3E7B2
:10399000206821188A4204BF11685268626004BF1F
:1039A000091821605C60C7E738BD00BF303F0020C8
:1039B00070B5CD1C25F0030508350C2D38BF0C253E
:1039C000002D064601DBA94203D90C2333600020F9
:1039D00070BD00F05BF8234A1468214691B9224C6F
:1039E00023681BB9304600F041F820602946304674
:1039F00000F03CF8431C26D10C233360304600F025
:103A000046F8E4E70B685B1B1AD40B2B0FD90B604D
:103A1000CD50CC18304600F03AF804F10B00231DCD
:103A200020F00700C31A1BD05A42E25070BD8C42EE
:103A30000DBF63684B686360136018BF0C46E9E70D
:103A40000C464968CAE7C41C24F00304A04205D010
:103A5000211A304600F00AF80130CDD02560D9E7B0
:103A600070BD00BF303F0020343F002038B5064C09
:103A7000002305460846236000F00AF8431C02D1E3
:103A8000236803B12B6038BD58570020704770473A
:103A9000044B1968024609B90349196018680244C1
:103AA0001A607047383F00205C570020F8B500BF0F
:103AB000F8BC08BC9E467047F8B500BFF8BC08BC0F
:043AC0009E46704767
:103AC400DD3A00082D32000800000000000000006C
:103AD4008000000049444C450064656661756C745F
:103AE4005461736B00000000000000000001020339
:103AF4000406070809000201022E2E5C5372635C5F
:103B0400757362645F636F6E662E63004344432083
:103B1400436F6E6669670043444320496E7465725F
:103B2400666163650053544D6963726F656C6563C8
:103B340074726F6E6963730053544D333220566947
:103B4400727475616C20436F6D506F727400303005
:0C3B540030303030303030303141000073
:083B6000A0C6FF7F0100000078
:043B6800B50100089B
:043B6C0091010008BB
:103B700001000000100000000B1F0008D11E00080B
:103B8000691E000800000000DF1D0008CD1D0008B0
:103B9000391E0008000000000000000000000000C6
:103BA000151E0008091E0008211E00082D1E000811
:103BB00009024300020100C03209040000010202B0
:103BC0000100052400100105240100010424020263
:103BD00005240600010705820308001009040100FE
:103BE000020A0000000705010240000007058102EB
:103BF0004000000009024300020100C03209040035
:103C00000001020201000524001001052401000149
:103C1000042402020524060001070582030800109F
:103C200009040100020A0000000705010200020069
:103C300007058102000200000A06000200000040A1
:103C40000100000009074300020104C0320904001A
:103C500000010202010005240010010524010001F9
:103C6000042402020524060001070582030800FF60
:103C700009040100020A00000007050102400000DB
:103C80000705810240000000AAAAAAAA0024F400A5
:103C9000E9340008C5340008C9340008CD340008F0
:103CA000A5370008B1370008BD370008D93700082C
:103CB000F5370008113800082D38000812010002FD
:103CC0000202004083044057000201020301000089
:103CD0000403090468010020000000000000000047
:103CE00000000000000000000000000000000000D4
:103CF00000000000000000000000000000000000C4
:103D000000000000000000000000000000000000B3
:103D100000000000000000000000000000000000A3
:103D20000000000000000000000000000000000093
:083D300000000000000000008B
:04000005080038496E
:00000001FF
