:020000040800F2
:100000000000022029880008C1870008C387000873
:10001000C5870008C7870008C987000800000000DE
:10002000000000000000000000000000E1390008AE
:10003000CB87000800000000713A0008CD87000857
:10004000798800087988000879880008798800088C
:10005000798800087988000879880008798800087C
:10006000798800087988000879880008798800086C
:10007000798800087988000879880008798800085C
:10008000798800087988000879880008798800084C
:10009000798800087988000879880008798800083C
:1000A000798800087988000879880008798800082C
:1000B000798800087988000879880008798800081C
:1000C000798800087988000879880008798800080C
:1000D00079880008798800087988000879880008FC
:1000E00079880008798800087988000879880008EC
:1000F00079880008798800087988000879880008DC
:1001000079880008798800087988000879880008CB
:1001100079880008798800087988000879880008BB
:1001200079880008798800087988000879880008AB
:10013000798800087988000879880008798800089B
:100140007988000879880008798800082D2100083E
:10015000798800087988000879880008798800087B
:10016000798800087988000879880008798800086B
:100170007988000879880008798800080000000064
:08018000798800087988000865
:1001900010B5054C237833B9044B13B10448AFF3C1
:1001A00000800123237010BDA80300200000000080
:1001B000108C000808B5034B1BB103490348AFF38B
:1001C000008008BD00000000AC030020108C000877
:1001D00010F8012B11F8013B012A28BF9A42F7D0F1
:1001E000D01A7047034613F8012B002AFBD1181AC6
:1001F0000138704753B94AB9002908BF00281CBF0D
:100200004FF0FF314FF0FF3000F07AB9ADF1080C3C
:100210006DE904CE00F006F8DDF804E0DDE9022324
:1002200004B070472DE9F0478C460D460446089E01
:10023000002B51D18A4217466DD9B2FA82FEBEF127
:10024000000F0BD0CEF1200C01FA0EF520FA0CFCB9
:1002500002FA0EF74CEA050C00FA0EF44FEA174AC0
:10026000250CBCFBFAF81FFA87F90AFB18CC45EA03
:100270000C4508FB09F3AB420AD9ED1908F1FF322E
:1002800080F02381AB4240F22081A8F102083D4476
:10029000ED1AA4B2B5FBFAF00AFB105544EA054486
:1002A00000FB09F9A14509D9E41900F1FF3380F0F9
:1002B0000A81A14540F2078102383C44A4EB0904BD
:1002C00040EA08400021002E61D024FA0EF40023F9
:1002D00034607360BDE8F0878B4207D9002E54D09C
:1002E000002186E821000846BDE8F087B3FA83F1D3
:1002F000002940F08E80AB4202D3824200F2FA80A5
:10030000841A65EB03050120AC46002E3FD086E839
:100310001010BDE8F08712B90127B7FBF2F7B7FA62
:1003200087FEBEF1000F34D1EB1B3A0C1FFA87FC9D
:100330000121B3FBF2F8250C02FB183345EA034513
:100340000CFB08F3AB4207D9ED1908F1FF3002D2DC
:10035000AB4200F2D1808046ED1AA3B2B5FBF2F0B9
:1003600002FB105543EA05440CFB00FCA44507D9E9
:10037000E41900F1FF3302D2A44500F2B880184618
:10038000A4EB0C0440EA08409DE731463046BDE846
:10039000F087CEF1200405FA0EF307FA0EF720FAE3
:1003A00004F83A0C25FA04F448EA0308B4FBF2F125
:1003B0004FEA184502FB11441FFA87FC45EA044541
:1003C00001FB0CF3AB4200FA0EF409D9ED1901F16F
:1003D000FF3080F08A80AB4240F2878002393D4492
:1003E000EB1A1FFA88F5B3FBF2F002FB103345EA73
:1003F000034500FB0CF3AB4207D9ED1900F1FF38C0
:100400006FD2AB426DD902383D44EB1A40EA01414C
:100410008FE7C1F1200722FA07F88B4005FA01F4B3
:1004200048EA030320FA07FE4FEA134CFD404EEA68
:10043000040EB5FBFCF94FEA1E440CFB19551FFADC
:1004400083F844EA054509FB08F4AC4202FA01F2DC
:1004500000FA01FA08D9ED1809F1FF3043D2AC4295
:1004600041D9A9F102091D442D1B1FFA8EFEB5FBCF
:10047000FCF00CFB10554EEA054400FB08F8A045C3
:1004800007D9E41800F1FF3529D2A04527D9023851
:100490001C4440EA0940A4EB0804A0FB02894C4537
:1004A000C6464D4615D312D056B1BAEB0E0364EBD7
:1004B000050404FA07F7CB401F43CC403760746053
:1004C0000021BDE8F0871846F8E69046E0E6C24510
:1004D000EAD2B8EB020E69EB03050138E4E72846DF
:1004E000D7E7404691E78146BEE7014678E7023804
:1004F0003C4445E7084608E7A8F102083D442BE7DD
:10050000704700BF38B50E4A0E4B054618784FF4B9
:100510007A73B3FBF0F31068B0FBF3F000F0A8F8C7
:10052000044658B90F2D09D8024629464FF0FF302E
:1005300000F05EF8044B20461D6038BD012038BD38
:10054000D4010020000000200400002008B50B4B5F
:100550001A6842F400721A601A6842F480621A60E3
:100560001A6842F480721A60032000F02FF80F20FE
:10057000FFF7C8FF08F0DCF8002008BD003C02408F
:10058000034A044B11681B780B441360704700BF8B
:100590007457002000000020014B1868704700BF0E
:1005A0007457002038B50446FFF7F6FF631C1CBFE4
:1005B000054B1B78054618BFE418FFF7EDFF401BFD
:1005C0008442FAD838BD00BF00000020074AD36833
:1005D00023F4E0631B041B0C43F0BF63000243F4ED
:1005E000003300F4E0600343D360704700ED00E0A7
:1005F000174B30B5DC68C4F30224C4F10703251D92
:10060000042B28BF0423062D4FF0010505FA03F340
:1006100003F1FF338CBF033C00241940A14005FACD
:1006200004F4013C2240002842EA01024FEA02128F
:10063000AFBF00F1604000F00F00064BD2B2A5BF83
:1006400000F56140D2B21A5480F8002330BD00BFDB
:1006500000ED00E014ED00E04209012300F01F006E
:1006600003FA00F0014B43F82200704700E100E07C
:100670000138B0F1807F0AD2064B074A5860F0215A
:1006800082F823100020072298601A60704701202A
:10069000704700BF10E000E000ED00E0044B1A6876
:1006A00004280CBF42F0040222F004021A607047D2
:1006B00010E000E02DE9F04F85B00B68DFF8AC8169
:1006C000684ADFF8AC91019300234FF0010E019CC2
:1006D0000EFA03FE0EEA0406B64540F0AE804C6802
:1006E00024F01007022F16D14FEAD30A00EB8A0A32
:1006F00003F0070BDAF820504FEA8B0B4FF00F0C8A
:100700000CFA0BFC25EA0C0C0D6905FA0BF545EA11
:100710000C05CAF820504FEA430A0325D0F800B070
:1007200005FA0AF5ED4304F0030C0BEA050B0CFA8D
:100730000AFC013F4CEA0B0C012FC0F800C011D895
:10074000876807EA050BCF6807FA0AFC4CEA0B0733
:100750008760476827EA0E0EC4F300179F4047EAF8
:100760000E074760C7683D408F6807FA0AF73D43A8
:10077000C560E50061D54FF0000BCDF80CB0D8F89E
:100780004470394D47F48047C8F84470D8F8447035
:1007900007F480470397039F23F0030707F180477F
:1007A00007F59C3703F0030CD7F808A04FEA8C0C30
:1007B0004FF00F0E0EFA0CFEA8422AEA0E0E43D09E
:1007C00005F58065A84241D005F58065A8423FD077
:1007D00005F58065A8423DD005F58065A8423BD06F
:1007E00048453BD005F50065A84239D005F5806540
:1007F000A84214BF0825072505FA0CF545EA0E05A1
:10080000BD601568F74314F4803F0CBF3D4035438D
:100810001560556814F4003F0CBF3D4035435560EA
:10082000956814F4801F0CBF3D4035439560D56832
:10083000A40254BF3D403543D5600133102B7FF4F3
:1008400044AF05B0BDE8F08F5D46D5E70125D3E79D
:100850000225D1E70325CFE70425CDE70525CBE722
:100860000625C9E7003C0140000002400038024074
:10087000001402400AB1816170470904FBE7F0B53A
:1008800006468BB0002864D00323344680F8B93381
:1008900001F0D0FA54F8100B00F0D4FE0FCC6D46E6
:1008A0000FC50FCC0FC594E8030085E80300371D82
:1008B00097E80E00306800F085FE0021306800F0F7
:1008C000C7FE00213346324606F1100401250846D2
:1008D00082F83810D18701310F2982F8395082F817
:1008E0003B0010645064D06402F11C02F0D100227D
:1008F000D6F800E0114602F1400083F8F821DA87CB
:100900000EEB800001320F2A83F8F91183F8FB11F6
:10091000C3F80012C3F80412C3F80C12416003F1CB
:100920001C03E8D10FCC6D460FC50FCC0FC594E862
:10093000030085E80300704697E80E0000F0A0FE73
:10094000012386F8B933306801F0BDF900200BB0FF
:10095000F0BD0120FBE790F8B833012B10B5044639
:100960000CD0012380F8B833006801F0A0F92068AA
:1009700000F062FE002084F8B80310BD022010BD14
:100980002DE9F04FD0F8009087B00446484601F0BA
:10099000D4F90290002840F02E81206801F09FF9E0
:1009A000002800F02881206801F099F9850748BFE8
:1009B0002268206842BF536903F00203536101F0CB
:1009C0008EF910F400250AD0206801F08CF909F5A1
:1009D00030660746A2460025002F40F00F812068B0
:1009E00001F07DF941030BD5206801F084F926461A
:1009F000039009F510680025039B002B40F03F8110
:100A0000206801F06CF900280DDAD9F8043823F0D9
:100A10000103C9F80438204601F08AFA22685369B4
:100A200003F000435361206801F059F906050BD526
:100A3000D9F80838D80702D5204601F061FA2268B3
:100A4000536903F400635361206801F048F9C1045D
:100A500037D509F500667368206823F001037360D9
:100A6000102100F0A9FE616809F51063FF220298C9
:100A7000884240F092814FF0FF33B361F36943F055
:100A80000113F361236B002B00F08F81D6F88430C3
:100A900043F00B03C6F88430736C43F00B037364AC
:100AA000D9F80038217C206823F4FE63C9F80038A7
:100AB00004F56F7201F060F92268536903F4805302
:100AC0005361206801F00BF982041DD5206801F004
:100AD00038F92068C36823F47053C36000F095FEB2
:100AE000002840F06B812268E0604FF4007363617E
:100AF000D36843F41053D360204601F0F0F9226824
:100B0000536903F400535361206801F0E8F8C30609
:100B10002BD52268936923F010039361D9F82060E4
:100B2000C6F34343022B06F00F0840F0A88147F6B6
:100B3000F0731E4214D01C2707FB0847C6F30A16A1
:100B40003246D7F80412484601F05BF8D7F8043271
:100B50003344C7F80432D7F810321E44C7F8106285
:100B60002268936943F010039361206801F0B7F89D
:100B7000070707D5204601F0AEF92268536903F054
:100B800008035361206801F0AAF8C60208D5E9B24B
:100B9000204601F0D5F92268536903F480135361AC
:100BA000206801F09CF8800208D5E9B2204601F0E7
:100BB000C3F92268536903F400135361206801F0FC
:100BC0008EF8410007D5204601F0BEF9226853692E
:100BD00003F080435361206801F081F842070AD591
:100BE00023685D686B0702D5204601F0B1F92368E0
:100BF0005A6815435D6007B0BDE8F08FF80738D537
:100C00005FFA85FB5946206801F07DF810F0010F6E
:100C1000804621D0216901239942B3600CD131690A
:100C2000DAF80002C1F31201411ACAF81012DAF818
:100C300004120844CAF804025946204601F03AF961
:100C40002169012908D13DB9D4F80C2222B904F553
:100C50006F72206801F090F818F0080F04D0204659
:100C600001F022F90823B36018F0100F1CBF102305
:100C7000B36001357F0820360AF11C0AACE6039BFD
:100C8000DA0758D55FFA85FB5946206801F045F828
:100C9000C307074620D5D9F834380121A94023EAF3
:100CA0000103C9F834380123C8F808302369012B3F
:100CB00001BF736C326C9B1873645946204601F077
:100CC00002F92169012907D135B9E36C23B904F58B
:100CD0006F72206801F050F8380744BF0823C8F845
:100CE0000830F90644BF1023C8F808307A0644BF1C
:100CF0004023C8F80830BB0744BF0223C8F80830B7
:100D00003F0618D523680493F76C336DFF1A336CD4
:100D10009F4228BF1F46049B03F5106307F1030A97
:100D200003EB45134FEA9A0A0593059B9B699BB217
:100D3000534508D82FB3039B5B08013503931C363A
:100D400008F1200858E6326DF36C9342F2D9002B7B
:100D5000F0D0376C04989B1A9F4228BF1F46237C13
:100D600000935A46BBB2716C00F037FF736C3B4482
:100D70007364336D07F1030A3B444FEA9A0A336503
:100D8000D3E7049B012203F5006BD3F83438AA4063
:100D900023EA0203CBF83430CDE702989A600130A1
:100DA000C3F808220290203361E6736943F00B0315
:100DB0007361336943F00B03336171E60323E3602E
:100DC0004023636100F0F8FB344B354A03449342FF
:100DD000236804D8DA6842F47052DA608CE6314A4B
:100DE000314902448A4203D8DA6842F46052F4E797
:100DF000A0F574022D49A2F510528A4203D8DA6890
:100E000042F45052E9E7A0F183722949A2F5E74282
:100E10008A4203D8DA6842F44052DEE7254A26497E
:100E200002448A4203D8DA6842F43052D5E7234AB2
:100E3000234902448A4203D8DA6842F42052CCE7BC
:100E4000204A214902448A4203D8DA6842F4105207
:100E5000C3E7A0F1B7721D49A2F558528A4203D8E0
:100E6000DA6842F40052B8E7194A1A4902448A4241
:100E7000DA6894BF42F4E05242F4C052ADE7062B68
:100E80007FF46EAE082204F56F7148461C2700F00F
:100E9000B8FE07FB0847C6F30A165CE6405327FF77
:100EA000FF340C00401E1BFF3F420F007F4F12001B
:100EB0001FD6130060B6E5FE5FE3160000D3CEFE3A
:100EC0003F771B00C05BB3FEBF9121001F75380048
:100ED000E05459FEDF9C410090F8B833012B10B567
:100EE000044609D0012380F8B833006800F0CFFE33
:100EF000002084F8B80310BD022010BD70B54EB2BA
:100F0000002E04464FF01C0501F07F00B5BF05FB25
:100F1000004105FB0141383101F5FC71C0B2002EE2
:100F2000B8BFC880022BCB704FEAD67504BF002330
:100F30000B7108704D7094F8B8338A60012B09D09A
:100F4000012384F8B833206800F07AFC002084F88C
:100F5000B80370BD022070BD4BB2002B10B54FF02E
:100F60001C02044601F07F00B5BF02FB004102FBFA
:100F70000141383101F5FC71DB0F08704B7094F8BA
:100F8000B833012B09D0012384F8B833206800F06E
:100F900096FC002084F8B80310BD022010BD38B5BF
:100FA00001F07F051C2404FB050104FB050401F589
:100FB000FC71C4F80C320023C4F80422C4F81032C7
:100FC00084F8F93184F8F85103690068012B08BFEF
:100FD000C4F80822DAB21DB900F092FD002038BD35
:100FE00000F0C8FCFAE71C2301F00F0103FB01012C
:100FF000B1F81002704738B501F07F051C2404FBDE
:10100000050104FB05043831E36400232365012353
:10101000626484F8393084F8385003690068012B21
:1010200008BFA264DAB21DB900F06AFD002038BD25
:1010300000F0A0FCFAE738B54BB2002B01F07F05B9
:101040004FF01C02B5BF02FB050102FB0101383164
:1010500001F5FC710122DB0FEDB28A700D704B704F
:1010600090F8B833934204460FD080F8B823006854
:1010700000F0D5FD2DB904F56F72217C206800F0D9
:101080007BFE002084F8B80338BD022038BD38B597
:101090004BB2002B05464FF01C0201F07F00B5BF9C
:1010A00002FB005102FB0151383101F5FC71DB0FED
:1010B00000248C7008704B7095F8B833012B09D060
:1010C000012385F8B833286800F0C8FD85F8B843D7
:1010D000204638BD022038BD006870B5436A21B98A
:1010E00043EA02438362002070BD846A002503EB5B
:1010F00014434E1EECB2B44205F1010506DB3F314C
:1011000000EB810043EA02434360ECE7403400EB2C
:101110008404646803EB1443ECE70368002059621D
:10112000704700002DE9F341044618B9012002B0D0
:10113000BDE8F0810368DD0710D42368980758D410
:1011400023681A0700F19A8023685B0700F1B880D2
:10115000A269002A40F019810020E8E7A64B9A68AE
:1011600002F00C02042A07D09A6802F00C02082A46
:101170000AD15B68590207D59F4B1B689A03DCD5DF
:101180006368002BD9D1D1E763689B4DB3F5803FED
:1011900011D12B6843F480332B60FFF7FDF9964D96
:1011A00006462B689B03C8D4FFF7F6F9801B64281A
:1011B000F7D90320BBE7B3F5A02F04D12B6843F484
:1011C00080232B60E5E72A6822F480322A602A68AF
:1011D00022F480222A60002BDFD1FFF7DDF90646DA
:1011E0002B689F03A9D5FFF7D7F9801B6428F7D98F
:1011F000DFE7814B9A6812F00C0F07D09A6802F073
:101200000C02082A11D15B685E020ED47A4B1A6870
:10121000950702D5E268012A88D11A68216922F06F
:10122000F80242EAC1021A608AE7E268734BB2B17F
:1012300001221A60FFF7B0F96F4D06462B68980738
:1012400007D52B68226923F0F80343EAC2032B6019
:1012500076E7FFF7A1F9801B0228EFD9A9E71A600A
:10126000FFF79AF9644D06462B6899077FF568AF3A
:10127000FFF792F9801B0228F6D99AE76269604B62
:101280007AB101221A60FFF787F95B4D06466B6F52
:101290009F073FF559AFFFF77FF9801B0228F6D96A
:1012A00087E71A60FFF778F9534D06466B6F98078A
:1012B0007FF54AAFFFF770F9801B0228F6D978E76F
:1012C0004D4B1A6C12F0805228D101921A6C42F0E8
:1012D00080521A641B6C03F080530193019B01261A
:1012E000484D2B68D9051BD5A368434D012B27D149
:1012F0002B6F43F001032B67FFF74EF93E4D074676
:1013000041F288382B6F9B0739D5002E3FF420AF70
:10131000394A136C23F08053136419E70026DFE782
:101320002B6843F480732B60FFF736F907462B6870
:10133000DA05D9D4FFF730F9C01B0228F7D938E70E
:10134000052B04D12B6F43F004032B67D0E72A6FE2
:1013500022F001022A672A6F22F004022A67002B7A
:10136000CAD1FFF719F941F2883807462B6F980761
:10137000CBD5FFF711F9C01B4045F7D919E7FFF7A7
:101380000BF9C01B4045BDD913E71B4DAB6803F0FB
:101390000C03082B3FF4CAAE1B4E0023022A336015
:1013A00034D1FFF7F9F807462B6899011ED4226A59
:1013B000E3691343626A43EA8213E26A43EA02631F
:1013C000A26A0D4C5208013A43EA02436B600123C2
:1013D0003360FFF7E1F8054623689A013FF5BCAE9C
:1013E000FFF7DAF8401B0228F6D9E2E6FFF7D4F857
:1013F000C01B0228D8D9DCE6003802400000474272
:10140000800E47420070004060004742FFF7C4F87A
:1014100004462B689B017FF59FAEFFF7BDF8001BCC
:101420000228F6D9C5E600BF134908B58B6803F05A
:101430000C03042B03D0082B03D0104808BD104820
:1014400008BD4A684B68496813F4800314BF0C4810
:101450000A48C1F3881118BF002302F03F02A1FB24
:101460000001FEF7C7FE044B5B68C3F30143013381
:101470005B00B0FBF3F008BD003802400024F4002C
:1014800000127A002DE9F0410D46044610B9012002
:10149000BDE8F081444B1A6802F00F028A4228D35B
:1014A00021688F072DD4C80740D43F4B1A6802F03B
:1014B0000F02954266D3226851076CD4130707D5F3
:1014C0003A4A2169936823F4604343EAC103936075
:1014D000FFF7AAFF354B364A9B68C3F30313D35C6F
:1014E000D840344B18600F20FFF70CF80020BDE8FF
:1014F000F081CAB21A701B6803F00F039942C6D17B
:10150000CEE72A4B11F0040F1EBF9A6842F4E05256
:101510009A600E0742BF9A6842F460429A609A68E5
:10152000A06822F0F00202439A60BCE762681F4B99
:10153000012A1DD11B6813F4003FA8D01B4EB368CD
:1015400023F003031343B360FFF726F841F2883812
:101550000746B368626803F00C03B3EB820FA4D0B4
:10156000FFF71AF8C01B4045F3D90320BDE8F0810E
:10157000911E01291B6802D813F0007FDDE713F0EC
:10158000020FDAE7EAB21A701B6803F00F039D42FC
:101590007FF47DAF8FE70549E0688B6823F4E05363
:1015A00003438B608AE700BF003C024000380240E2
:1015B000ED8D0008D4010020014B1868704700BF72
:1015C000D401002084B038B505AD85E80E000A9B33
:1015D000012B044626D1836B23F480338363C368D5
:1015E00023F4840323F04003C360C36823F440134F
:1015F000C360119B012B02BFC36843F48013C36017
:1016000000F0DEFB089B012B07D1A36843F0060323
:10161000A360A36843F02003A360BDE83840002026
:1016200004B07047C36843F04003C36000F0C8FBD8
:101630004FF48033A363E5E7836843F001038360DD
:1016400000207047836823F0010383600020704707
:1016500008B5C368012923F0C043C36008D1C3683B
:1016600043F00053C3603220FEF79CFF002008BD0A
:101670000029F8D1C36843F08043C360F3E700005A
:1016800084B02DE9F041044607A880E80E00119EC1
:101690000A9FA36B8846A6B943F40013A3630023F3
:1016A000C4F8003ED4F80038C4F800380C9B012B75
:1016B00004F500655ED1099939B9204600F09EF81D
:1016C00007E043F40023A363E9E71946204600F04E
:1016D00095F81021204600F06FF8204600F07EF8C3
:1016E00000234FF0FF322B6119466B614FF09040A1
:1016F000AA614FF0FF0EEB6104F5106243453BD148
:10170000002104F5306208464FF0904E4FF0FF0C78
:101710008B423ED12B69012F23F480732B6108D1BA
:10172000234B2B632B6B43F4803343F003032B6376
:101730002B6B0023A3616FF0804363611FB9A36922
:1017400043F01003A361A2691A4B1343A3610D9BDD
:101750001BB1A36943F00803A361012E01BFA36974
:1017600043F0804343F00403A361BDE8F04100204F
:1017700004B070470321A0E7D2F800C0BCF1000F0D
:10178000B4BF1060116001331161C2F808E020326B
:10179000B4E7D2F80080B8F1000FB4BFC2F800E09F
:1017A000106001311061C2F808C02032B0E700BFFC
:1017B0000001800000383C80890141F02001064A88
:1017C0000161013A05D0036913F02003F9D11846ED
:1017D00070470320704700BF410D03001023064AE5
:1017E0000361013A05D0036913F01003F9D11846DB
:1017F00070470320704700BF410D0300D0F8003848
:101800001943C0F800180020704700F50062D0F8B6
:10181000080810F0060012D0936803F00603022BAC
:101820000CD0936803F00603062B07D0936803F0EF
:101830000603042B14BF00200220704703207047CA
:1018400030B54B780C78D0F81C5800F50062012BAD
:101850001BD1A3409BB22B4300F51060D36100EB7A
:1018600044131A6812040ED48A68C8781D68C2F33B
:101870000A0242F0805242F4004242EA804040EACA
:10188000845028431860002030BD4FF48033A340BB
:1018900000F530602B4300EB4410D36103681B0458
:1018A000F1D48B68C9780268C3F30A0343F080530C
:1018B00043F4004343EA814313430360E3E700F04A
:1018C00001B8000070B54B78012B0E46054609782B
:1018D0004FF0200326D100F5106213FB01231A6894
:1018E00022F400421A604FF000621A604FF080420A
:1018F0001A601F4A013A01D1032070BD9C6814F0A0
:101900008044F7D110212846FFF756FF3178D5F8EB
:101910001C2801238B409BB222EA0303C5F81C3824
:10192000204670BD00F5306213FB01231A6822F4D3
:1019300000421A604FF000621A604FF080421A6055
:101940000B4A013AD8D0986810F01000F9D1D5F8B8
:10195000043843F48063C5F80438D5F81C384FF4D4
:1019600080328A4023EA0203C5F81C3870BD00BFEC
:10197000410D0300F7B54B780C78012B4B6977D1FB
:10198000202600F5106516FB04542669002B38D17B
:1019900026F0FF5626F4C0162661266946F4002676
:1019A00026612669F60CF6042661012A50D10C78CE
:1019B0000E6905EB44146661CE78012E0FD1D0F884
:1019C00008480F7814F4807F4FF0200414FB07546C
:1019D00027680CBF47F0005747F0805727600F7803
:1019E00005EB4715012E2C6844F004442C6005D10A
:1019F00000929BB23A46C96800F0EFF8002003B0AD
:101A0000F0BDF60CF604266126698F6826F0FF56B5
:101A100026F4C0162661DE19013EB6FBF7F7374EF5
:101A2000D4F810E006EAC74646EA0E0626612769A2
:101A3000C3F312063E432661CE78012E5AD12669A1
:101A400026F0C0462661266946F000562661ACE7BE
:101A5000CE78012EB3D0002BAED091F800E0D0F8B4
:101A60003478012404FA0EF43C43C0F83448A3E768
:101A700000F5306505EB44142569ED0CED04256196
:101A8000256925F0FF5525F4C01525618D68FBB942
:101A90002369C5F312051D432561236943F400231F
:101AA0002361012A04BFCB686361CB78012B0AD183
:101AB000D0F8083813F4807F23680CBF43F000533C
:101AC00043F080532360236843F00443236095E789
:101AD0000A4E27692B44013BB3FBF5F306EAC346E4
:101AE0003E4326619BB226695D43C5F3120535432B
:101AF0002561D6E7012AAED159E700BF0000F81FE3
:101B00004B78012B70B50B784D6943D1202400F53B
:101B1000106614FB03631C69CDB924F0FF5424F450
:101B2000C0141C611C6944F400241C611C69E40C91
:101B3000E4041C610D7806EB4513012A1C6844F08F
:101B400004441C601BD10A695A61002070BDE40C7A
:101B5000E4041C611C6924F0FF5424F4C0141C61CB
:101B60008C68A54288BF4C611C6944F400241C6148
:101B70004C691D69C4F312042C431C61DAE74B69FC
:101B8000002BE2D0D0F834280123AB401343C0F837
:101B90003438DAE700F5306000EB43100369DB0C02
:101BA000DB040361036923F0FF5323F4C0130361D3
:101BB0008B6805B14B61046944F400240461046935
:101BC000C3F312032343012A036104BFCB684361BB
:101BD000036843F004430360B7E710B59DF808407D
:101BE0004CB9033300F5805023F0030300EB0232BD
:101BF0000B44994201D1002010BD51F8040B106034
:101C0000F7E7033222F003020A4400F580509142C4
:101C100001D108467047036841F8043BF7E74B7869
:101C20000A78012B4FF020030BD100F5106013FB55
:101C300002000368002B0BDB036823F08043036082
:101C400006E000F5306013FB02000368002BF3DAB6
:101C5000036843F400130360002070474B780A7850
:101C6000012B0CBF00F5106000F53060202313FB42
:101C70000200036823F400130360CB78023B012BBE
:101C80009EBF036843F08053036000207047D0F884
:101C9000003823F4FE63C0F80038D0F8003809019A
:101CA00001F4FE611943C0F800180020704708B520
:101CB000D0F8043823F00203C0F804380320FEF7FC
:101CC00071FC002008BD08B5D0F8043843F00203C9
:101CD000C0F804380320FEF765FC002008BD426907
:101CE000806910407047D0F8183800F50060C0696E
:101CF0001840000C7047D0F8183800F50060C06933
:101D0000184080B2704700F5306303EB411100F5D5
:101D100000608A6840691040704710B5D0F81048DC
:101D2000D0F8343800EB4110CB4000F51060DB01F7
:101D30008068DBB22343184010BD406900F0010009
:101D40007047D0F8003923F4FF6323F00703C0F88D
:101D5000003900F500639A6802F00602042A02BF07
:101D6000D0F8002942F00302C0F800295A6842F472
:101D700080725A600020704710B50024C0F8104BE4
:101D8000D0F8104B44F40024C0F8104BD0F8104B9E
:101D900044F01804C0F8104BD0F8104B012900F59E
:101DA000306344F0C04408BF4FF08023C0F8104BAC
:101DB00004BFC0F8142BC0F8003B002010BD000089
:101DC0000A4B013B01D1032070470269002AF8DA6F
:101DD0000369064A43F001030361013AF3D0036942
:101DE00013F00103F9D11846704700BF410D0300FD
:101DF00010B50C4C0C490022204601F079F90B4932
:101E0000204601F08AF90A49204601F02AF92046C5
:101E100003230122E02100F0FDFE2046BDE8104032
:101E200001F082B97857002008000020AC000020A3
:101E30003C00002010B50368B3F1A04F86B02DD14F
:101E40004FF4C853019302230024029301A90A23EB
:101E50001348059303940494FEF72CFC4FF400738D
:101E600001A90F48019302940394FEF723FC0D4B44
:101E70005A6B42F080025A6300945A6C42F48042DA
:101E80005A645B6C03F4804300934320224605218F
:101E9000009BFEF7ADFB4320FEF7DEFB06B010BD56
:101EA000000002400038024000F56F71D0F8EC03EA
:101EB00001F051B91C2303FB0103D0F8EC03D3F864
:101EC000042201F075B91C2303FB0103D0F8EC03D5
:101ED0005A6C01F09FB9D0F8EC0301F01BBA10B5B1
:101EE000C1680446003118BF0121D0F8EC0301F0AD
:101EF000FFF9D4F8EC03BDE8104001F0DAB90000B6
:101F000010B50446D0F8EC0301F0F5F92268D2F8D8
:101F1000003E43F00103C2F8003E236A23B1034AA6
:101F2000136943F00603136110BD00BF00ED00E02C
:101F3000D0F8EC0301F0E8B9D0F8EC0301F0F8B9FF
:101F4000D0F8EC0301F0F2B9D0F8EC0301F0F2B9EB
:101F5000D0F8EC0301F0F0B908B50278002A35D1C9
:101F60001B4B0421C3F8EC03C0F820324FF0A04013
:101F700083E803000221D9609961184601211A61A2
:101F80005A61DA611A625A62D9621A63FEF777FC03
:101F900020B140F23D110F4806F0C8FB80210C48EB
:101FA000FFF7BBF8402200210948FFF795F84022CF
:101FB00001210748FFF790F8402202210448FFF76B
:101FC0008BF8402203210248FFF786F8002008BD65
:101FD0009C590020408C000808B5D0F82002FEF77C
:101FE000BAFC03289ABF024B185C022008BD00BF50
:101FF0003C8C000870B516461D46044600F006FFEE
:10200000334601462A46D4F82002FEF777FF03281C
:102010009ABF024B185C022070BD00BF3C8C0008C8
:1020200010B5044600F0F2FE0146D4F82002FEF797
:1020300093FF03289ABF024B185C022010BD00BF1B
:102040003C8C000808B5D0F82002FEF7F4FF032806
:102050009ABF024B185C022008BD00BF3C8C0008F0
:1020600008B5D0F82002FFF712F803289ABF024BF8
:10207000185C022008BD00BF3C8C000811F0800FE6
:10208000D0F820324FF01C021BBF01F07F0102FB91
:10209000013102FB013191F83A0008BF91F8FA01D1
:1020A0007047000008B5D0F82002FEF715FF03289E
:1020B0009ABF024B185C022008BD00BF3C8C000890
:1020C00070B5044615461E4600F0A0FE3346014694
:1020D0002A46D4F82002FEF78EFF03289ABF024B4F
:1020E000185C022070BD00BF3C8C000870B504462F
:1020F00015461E4600F08AFE334601462A46D4F8AD
:102100002002FEF74CFF03289ABF024B185C022006
:1021100070BD00BF3C8C000810B5044600F076FE90
:102120000146D4F82002FEF75EFF10BD0148FEF71D
:1021300027BC00BF9C59002012230B800048704729
:102140002400002004230B80004870473800002042
:1021500010B5044C04480A46214601F08CFA20468A
:1021600010BD00BF8C5D0020A28C000810B5044C8F
:1021700004480A46214601F07EFA204610BD00BF01
:102180008C5D0020A88C000810B5044C04480A4659
:10219000214601F070FA204610BD00BF8C5D002082
:1021A000B78C000810B5044C04480A46214601F0DB
:1021B00062FA204610BD00BF8C5D00207F8C0008B5
:1021C00010B5044C04480A46214601F054FA204652
:1021D00010BD00BF8C5D00208F8C00082DE9F743F7
:1021E0001A4FDFF874901A4E4FF0FF31002002F0C2
:1021F00077FF3D882C2D20D92C3D0021284606F064
:102200007BF90446C8B12A464946806906F079FB45
:102210004FF00008E561A069A7F8008003F0A2FC78
:10222000012807D18DF8000041466846019403F06B
:1022300051FC10B9204606F03BF90649304600F043
:102240001FFF304600F039FFCEE700BF040C00202E
:1022500078570020C40B0020F00300200B6873B5F2
:102260001C4E1D483488402B84BF40230B600D4614
:102270000A681A49204406F044FB2B681C44A4B2A7
:10228000402B34801ED0164B1868D8B1154B01A9CD
:102290001C800023338002F055FF019B3BB1124BA1
:1022A0004FF080521A60BFF34F8FBFF36F8F0F490B
:1022B000D1E90023013243F10003C1E900230020EA
:1022C00002B070BD05490A4800F0DAFE084800F087
:1022D000F4FEF4E7060C0020C4030020C40B002029
:1022E000400C0020040C002004ED00E0300C002025
:1022F00078570020064900220023C1E90023054940
:10230000C1E90023044B01221A7003F00FBB00BF88
:10231000380C0020300C00204C0000202DE9F0414A
:102320000C46064620B101283DD00020BDE8F081D2
:102330000B68994D994F8A68D7F818822B60022B49
:102340006A6011D1FFF7D6FFE368AB602369EB60E9
:1023500063692B61924BC8F814621E709149082280
:10236000384600F0BDFEE0E7032B07D10124C8F892
:102370001442FFF7BFFF8A4B1C70D6E7042B08D12D
:10238000CB686B610B69AB614B69EB618B692B624D
:10239000E4E75A1F012A03D8082282497F48E0E770
:1023A000082BC2D1F8E77C4B1968022915D17E4A67
:1023B0005B682260A36040F22C6200236262E360EB
:1023C00020616361A061E3612062A362E362236331
:1023D0000D2292006260D2B295E0042940F0C080E4
:1023E000724A226072485A685B69A26083424FF069
:1023F0000002E26000F0A78036D86E4A934200F0F7
:10240000A78013D8063A934258D0013293425DD048
:10241000063A934233D164221023226163616649F4
:1024200004F1180006F06DFA6A22D2E7634A93427B
:1024300077D0033293422FD0073A93421FD10F2314
:102440002361102363615E4B04F1180203F10C0158
:1024500053F8040B42F8040B8B42F9D119889B788E
:10246000118093702B224DE0564883426BD00CD8DC
:10247000554A934262D00FD8013A934257D0002375
:102480002361142363610622A3E7B3F1013F3FD028
:1024900008D84E4A9342F2D104232361102363618A
:1024A000002310E013F1FE3F17D0494A9342E6D1D2
:1024B0000423236110236361012304E0102363617B
:1024C000216140F2DC53A361072282E704232361E8
:1024D000102363614FF47A73F5E706232361102319
:1024E000636103F10053A3F506431A78394B43EABD
:1024F0000263A361384B1A78013B1B7843EA02233D
:10250000E3611E2262602146244801F0D0F80CE706
:102510000623236110236361304BA3614FF6EE73F2
:10252000EEE710236361216140F21663CBE70423D9
:102530002361102363612A4B1B68C4E71023636186
:102540002161284BF8E7102321616361A261BBE799
:1025500003232361142363611E4BA3611B22D1E774
:10256000052907D15B68204AA36000232260E3604D
:1025700004222EE706294FF0000204D11B4B2360F2
:10258000A260E260F4E708297FF423AF01F1004183
:102590005B682160A360F4E7080C002078570020F6
:1025A0004C000020388D00080200008004000080EC
:1025B000020201000C010100C48C0008110101009D
:1025C000288D00080401020002010200050102003A
:1025D0000401010140787500127AFF1F407875DD13
:1025E000380C0020300C0020050000800600008020
:1025F00008B5FFF77FFE002008BD000010B5074CAE
:1026000007490022204600F033FD0649204600F02D
:1026100037FDFFF76FFE002010BD00BF7857002088
:102620008C5F0020C40B002070B51B4ED6F818320A
:10263000D3F8143273BB194B1B78012553BB184CCC
:10264000B1F5006F0A4628BF4FF4006225602421CF
:1026500002F12C0523616361A361E361236263627C
:10266000A362A160E2600146656004F12C0006F0FF
:1026700048F9AAB22146304600F0FAFC304600F094
:1026800005FD0849D1E90023013243F10003C1E906
:10269000002370BD012070BD785700204C00002041
:1026A0008C5F0020380C00200A4B1B7807B56BB9F3
:1026B000094A136843B90192062200920749084863
:1026C0004FF4807202F03CF8012000E0002003B0DB
:1026D0005DF804FB4C000020400C0020588D0008E1
:1026E000DD21000870B505460E460524A98BA869B2
:1026F000FFF79AFF30B10520013C02F051FA14F0C7
:10270000FF04F3D116B1284605F0D2FE012070BDBA
:102710002DE9F84F0024144FDFF850A006468946F3
:1027200025464FF0500B3B7804F10108E4B2A34278
:1027300002D82846BDE8F88F0BFB04A44946A368DD
:10274000C6F81832E368C6F81C32636830461B6866
:102750009847D6F81832A3600543D6F81C32E360D8
:10276000EDB24446DFE700BF47100020B867002005
:102770002DE9F84F0024144FDFF850A00646894693
:1027800025464FF0500B3B7804F10108E4B2A34218
:1027900002D82846BDE8F88F0BFB04A44946A3687D
:1027A000C6F81832E368C6F81C32636830465B68C6
:1027B0009847D6F81832A3600543D6F81C32E36078
:1027C000EDB24446DFE700BF47100020B8670020A5
:1027D0002DE9F8430B78394F03F01F03012B054611
:1027E0001CD0022B62D197F800C0354A4FF0000E82
:1027F0005FFA8EF4644525D28B8813F080003ED1B9
:1028000092F81180DBB2C6B2464547D202EB00090E
:10281000013099F83F909945F5D13FE00023387891
:10282000DFF89CE01A465026DCB284420AD206FB4E
:1028300003EC01339CF803C0624491F804C0D2B2A7
:102840006245F1D93B78A34234D01D4E502303FB9F
:1028500004639868C5F81802D8685B68C5F81C025C
:102860009B682BB328469847502303FB0464D5F894
:102870001832A360D5F81C32E360BDE8F88392F803
:102880001080002003F07F03C6B2464506D202EB5B
:102890000009013099F830909945F5D1137C9E429A
:1028A0000EF1010E02F15002A2D0CBE7FF24C9E7DE
:1028B0001846D9E70020BDE8F88300BF4710002084
:1028C000B8670020F8B51B4B05461B4893F800E09D
:1028D00000240646E3B29E4529D9077C0022D3B2E4
:1028E0009F4202D801345030F4E7944601328318F5
:1028F00093F82F308B42F2D1502303FB04639A6884
:10290000C5F81822DA68C5F81C225A68906920B107
:1029100063445269997C28469047502303FB046422
:10292000D5F81832A360D5F81C32E360F8BD00205A
:10293000F8BD00BF47100020B8670020F8B51C4B59
:1029400005461C4893F800E000240646E3B29E4585
:102950002BD9477C0022D3B29F4202D80134503099
:10296000F4E794460132831893F83E308B42F2D15B
:10297000502303FB04639A68C5F81822DA68C5F887
:102980001C225A68926972B16344284693F8211058
:102990009047502303FB0464D5F81832A360D5F8A0
:1029A0001C32E360F8BD1046F3E70020F8BD00BF1D
:1029B00047100020B86700202DE9F8430026DFF813
:1029C0005090DFF850800546344699F80030F7B251
:1029D000BB4202D82046BDE8F883502303FB07839F
:1029E0009A68C5F81822DA685B68C5F81C221B696A
:1029F0001BB1284698470443E4B2502303FB0783E6
:102A0000D5F818229A60D5F81C22DA600136DCE786
:102A100047100020B86700202DE9F8430026DFF8B2
:102A20005090DFF850800546344699F80030F7B2F0
:102A3000BB4202D82046BDE8F883502303FB07833E
:102A40009A68C5F81822DA685B68C5F81C22DB684A
:102A50001BB1284698470443E4B2502303FB078385
:102A6000D5F818229A60D5F81C22DA600136DCE726
:102A700047100020B86700202DE9F8430026DFF852
:102A80005090DFF850800546344699F80030F7B290
:102A9000BB4202D82046BDE8F883502303FB0783DE
:102AA0009A68C5F81822DA685B68C5F81C22DB69E9
:102AB0001BB1284698470443E4B2502303FB078325
:102AC000D5F818229A60D5F81C22DA600136DCE7C6
:102AD00047100020B8670020F8B51B4B05461B487F
:102AE00093F800E000240646E3B29E452AD9077C0D
:102AF0000022D3B29F4202D801345030F4E794460A
:102B00000132831893F82F308B42F2D1502303FB0C
:102B100004639A68C5F81822DA68C5F81C225A6856
:102B2000126A6AB163442846997C9047502303FB9C
:102B30000464D5F81832A360D5F81C32E360F8BD00
:102B40001046F3E70020F8BD47100020B8670020CA
:102B5000F8B51C4B05461C4893F800E000240646D7
:102B6000E3B29E452BD9477C0022D3B29F4202D8C4
:102B700001345030F4E794460132831893F83E3024
:102B80008B42F2D1502303FB04639A68C5F81822E4
:102B9000DA68C5F81C225A68526A72B16344284642
:102BA00093F821109047502303FB0464D5F81832A2
:102BB000A360D5F81C32E360F8BD1046F3E70020AF
:102BC000F8BD00BF47100020B8670020024B1B88EB
:102BD00003800248704700BF44100020440C0020CE
:102BE0000A2303800048704794000020024B1B8892
:102BF00003800248704700BF44100020440C0020AE
:102C0000024B1B8803800248704700BF441000201D
:102C1000440C00202DE9F04F724C89B0814603939B
:102C200023880191029243B96F4B704A03CB1B7802
:102C300013720923106051602380D9F814120029FF
:102C400000F0CE806A4B994200F0CA80DFF8AC8178
:102C500098F80030042B00F2C38066489DF80450B9
:102C6000624E654F50225A43831885549DF80820C0
:102C70005A709DF80C209A70D9F818229A60D9F8E9
:102C80001C225960DA600DF11E00CB6A9847BDF82E
:102C90001E30C318054604934FF0FF0B049B9D4262
:102CA00011D32388B3701B0AF370534B534A1B781C
:102CB00033711378013313704D4BC9F8143200206F
:102CC00009B0BDE8F08FB4F800A02A7806EB0A033B
:102CD0002946184605F015FE297842780AEB010EC0
:102CE0001FFA8EFE042A0346A4F800E00D4431D0FA
:102CF00020D8022AD2D102790592DFF80CC116F849
:102D00000A20BCE80300C2F108021EFA82F2228007
:102D10003A7846F80A009A709DF81420DA709DF807
:102D2000042059601A719DF808205A719DF80C20F2
:102D30009A71B3E7052A22D0242AAFD18278012ADA
:102D400048D0062AAAD13A78C178013AD2B21144C1
:102D5000C17041E081783A788B450DD0501C9A7053
:102D6000244A98F800303870502000FB03238B462B
:102D7000DA780132DA7091E7013A9A708EE780785A
:102D8000DFF870E098F80010502210F0800F02FB7E
:102D900001E211D0117C02EB010E013111741849CE
:102DA0000A788EF8302000F07F008EF81200501C58
:102DB000087062F07F02E0E7517C02EB010E013106
:102DC000517410498EF821000A788EF83F20501C6B
:102DD0000870D2E73A78013A19790A441A715DE726
:102DE00002206DE74410002088000020440C0020E1
:102DF00050000020B8670020461000204710002037
:102E0000A8000020A9000020A00000202DE9F04328
:102E100011F07F0E44D0244B1E78244B00221D4617
:102E20004FFA81FCD4B2A6423AD9D0F818729C6805
:102E3000A74222D1D0F81C72DC68A7421DD1BCF198
:102E4000000F14DB93F811800024E7B2B84514D9C1
:102E50002746013403EB040999F820908945F4D101
:102E6000502303FB02523A4492F83F1018E093F8C3
:102E700010800024E7B2B84502D801325033D1E7C0
:102E80002746013403EB040999F81190F145F1D17B
:102E9000502303FB02523A4492F8301041F0800173
:102EA0000846BDE8F08300BF47100020B867002047
:102EB000D0F818321BB10020C3F81402704702206A
:102EC0007047D0F81C3210B5D0F818425BB194F8B6
:102ED0000002FF2807D09B6894F8012221469847FA
:102EE000FF2384F80032002010BD00003E23038041
:102EF00000487047E40000203E23038000487047EC
:102F0000240100203E230380004870477001002008
:102F10000A230380004870476401002038B5054645
:102F2000D0F81842FFF7F8F8D5F81832C4F80C02B8
:102F30004BB1D5F81C32D4F80402DB6804F50371F8
:102F40009847002038BD022038BD000038B50D7804
:102F500015F06002044616D0202A12D1CA884B7898
:102F60001AB12D06D0F8181205D5D4F81C028468C1
:102F70001846A04705E081F8003281F8012200F0F0
:102F8000ABFB002038BD4B780A2BFAD10122024955
:102F900000F08DFBF5E700BF4810002010B581213F
:102FA0000446FFF73DF801212046FFF739F882215A
:102FB0002046FFF735F8D4F8183253B1D4F81C3254
:102FC0005B689847D4F8180205F084FC0023C4F825
:102FD0001832002010BDF8B5037C04467BBB4FF4CB
:102FE000007302228121FFF705F84FF400730222DB
:102FF00001212046FEF7FEFF0823032282212046FE
:10300000FEF7F8FF4FF4077005F05CFC0646C4F8C5
:10301000180220B3D4F81C321B689847277C00257F
:10302000C6F81452C6F8185287B94FF40073D6F890
:10303000042201212046FFF759F83846F8BD402305
:1030400002228121FEF7D6FF4023D0E74023D6F8A5
:10305000042201212046FFF749F82846F8BD012047
:10306000F8BD19B1C0F81C1200207047022070474B
:10307000D0F818320020C3F80812C3F810227047A5
:10308000D0F818320020C3F804127047D0F8182284
:1030900010B572B1D2F81442012364B9C2F81432E7
:1030A0008121B2F81032D2F80822FFF709F8204641
:1030B00010BD022010BD184610BDD0F8182210B562
:1030C00062B1047C44B94FF40073D2F804220121A8
:1030D000FFF70CF8002010BD4023F6E7022010BDDA
:1030E00008B513460A468221FEF7EAFF002008BD14
:1030F00008B580B1D0F8143213B10023C0F81432EF
:1031000009B1C0F81012012380F8FC310270FEF7FB
:1031100023FF002008BD022008BD19B1C0F8141219
:10312000002070470220704708B5FEF755FF0020C9
:1031300008BD08B5D0F814320BB9022008BD1B68D1
:1031400098470028F9D108BD08B5D0F814325B685B
:103150009847002008BD38B5044600F5027528469A
:1031600000F075FA012394F80812C4F8F431B4F8A9
:103170000E32C4F8F83101F01F03012B0ED007D333
:10318000022B10D001F080012046FEF75BFF03E028
:103190002946204600F0E6F8002038BD29462046A2
:1031A00000F0DAF9F8E72946204600F0EDF9F3E7F8
:1031B00038B50446154611BBD0F8F431032B0FD1B6
:1031C000D0F80C31D0F8102193420BD99B1A9A42B7
:1031D00028BF1A46C0F80C3192B2294600F08BFA8B
:1031E000002038BDD0F814321B6923B190F8FC21BF
:1031F000032A00D19847204600F085FAF0E7D0F87E
:1032000014329B69002BEBD090F8FC21032AE7D104
:103210009847E5E770B5134604460E4600293DD1B0
:10322000D0F8F421022A0FD1C569026A954214D957
:10323000AA1AC261194692B200F046FA33461A46FB
:1032400019462046FEF752FF94F80032012B02D1B6
:10325000002384F80032002070BD8369B3FBF2F5CF
:1032600002FB153565B99A420AD8D0F8F821934285
:1032700006D22A4600F028FAC4F8F8512B46DEE7B9
:10328000D4F81432DB682BB194F8FC21032A01D165
:1032900020469847204600F041FAD5E7D0F814328E
:1032A0005B69002BD7D090F8FC21032AD3D1984733
:1032B000D1E738B500220446114640254023FEF7E9
:1032C00099FE2B46C4F81051002280212046FEF7BB
:1032D00091FE012384F8FC31D4F8183225622BB119
:1032E000D4F8143221795B6820469847002038BD15
:1032F00001740020704790F8FC3180F8FD31042300
:1033000080F8FC310020704790F8FD3180F8FC31E6
:103310000020704708B590F8FC21032A04D1D0F8AA
:103320001432DB6903B19847002008BD00207047C4
:10333000002070470020704708B5012280F8FC216A
:10334000D0F81422017952689047002008BD10B5CA
:1033500080210446FEF776FE20460021BDE810409D
:10336000FEF770BE37B54B7804460D46092B79D869
:10337000DFE813F0C900E5007800D90078006D009F
:103380000A007800B9008D004B881A0A013A062A13
:1033900068D8DFE802F0041C296767495200D0F8BA
:1033A00010321B68207C0DF106019847BDF80620FD
:1033B000002A67D0EB88002B64D09A4228BF1A46B7
:1033C000ADF806200146204600F071F95AE0027C73
:1033D000D0F8143232B99B6A0DF1060098470223E7
:1033E0004370E3E7DB6AF7E7DBB2052B3AD8DFE8A7
:1033F00003F003070B0F1317D0F810325B68D1E707
:10340000D0F810329B68CDE7D0F81032DB68C9E7FE
:10341000D0F810321B69C5E7D0F810325B69C1E7FC
:10342000D0F810329B69BDE7037CDBB9D0F81432C9
:103430000DF106005B6B9847B8E7037C93B9D0F8B1
:1034400014320DF106001B6B98470723C8E78B88E1
:1034500043B9CB8833B990F8FC318D78032B05F054
:103460007F0503D12046FFF772FF0BE080F8FE5185
:103470002946FEF717FE204600F045F92DB102233C
:1034800084F8FC31002003B030BD0123F8E78978CF
:10349000304D01292970E5D890F8FC31022B0CD071
:1034A000032BDFD1B1B9022380F8FC314160FFF773
:1034B0004BFE204600F027F9E4E70029F9D001216E
:1034C0000323416080F8FC312046FFF732FE0228DA
:1034D000EFD1C7E741680129EBD0C9B2FFF734FE4D
:1034E00029786160F0E7CA88012ABBD190F8FC31E5
:1034F000022B03D0032BB5D1011D64E70146002345
:1035000041F8083F5FE790F8FC31023B012BA9D856
:103510000023C360D0F804320BB10223C36002223F
:1035200004F10C014FE74B88012BABD1C4F80432F6
:10353000D4F8143229469B6820469847B9E790F89A
:10354000FC31023B012B8DD84B88012B9AD10023F3
:10355000ECE700BF4910002038B590F8FC31032B90
:1035600004460D460DD10B79042B0AD8D0F814323D
:103570009B689847EB8813B9204600F0C4F80020F8
:1035800038BDFFF7E4FEFAE770B50A788E8802F0DE
:103590006002202A04460D46F3B205D1D0F8143259
:1035A0009B689847002070BD4A78012A1CD02AD316
:1035B000032AF7D190F8FC21022A40D0032A02D036
:1035C000FFF7C5FEEEE74A8822B95E0602D019462B
:1035D000FEF738FDD4F8143229469B6820469847F8
:1035E000204600F090F8DDE790F8FC21022A26D072
:1035F000032AE5D14A88002AD4D15906F0D01946C9
:10360000FEF72EFDE6E790F8FC21022A17D0032AE8
:10361000D6D103F07F0516F0800F00EB0515194693
:1036200014BF143505F58275FEF728FD68B1012336
:103630002B6002222946204600F039F8B2E75A06EC
:10364000B0D01946FEF7FEFCACE72860F1E70B7836
:1036500003704B784370CA788B7803EB0223438066
:103660004A790B7903EB02238380CA798B7903EBC8
:103670000223C380704730B588B105462B1A15F870
:10368000014BDBB2002CF9D15B00023313800B70CD
:1036900003234B700138022310F8015F05B930BDD8
:1036A0005A1CD2B2CD540233DBB28C54F4E710B5BD
:1036B00013460222C0F8F42183610A46C361002147
:1036C000FEF7FEFC002010BD08B513460A46002197
:1036D000FEF7F6FC002008BD10B513460322C0F823
:1036E000F421C0F808310A46C0F80C310021FEF779
:1036F000FDFC002010BD08B513460A460021FEF768
:10370000F5FC002008BD08B50423C0F8F4310023FF
:103710001A461946FEF7D4FC002008BD08B505235B
:10372000C0F8F43100231A461946FEF7DFFC0020EA
:1037300008BD08B501F0E0F8002008BD30B5B0F9CB
:103740000840028A0B4690E8220085B0842C14BF02
:103750000334002403A801900094284600F0F0FFF1
:1037600001280CBF0398002005B030BD08B5002823
:1037700008BF012001F014FA002008BD08B501F0CF
:1037800095FB012803D0BDE8084000F0A3B908BDAF
:1037900010B5182000F0A6FA044620B1002340F826
:1037A000043B00F086F8204610BD70B50C46054677
:1037B00040B94FF0500383F31188BFF36F8FBFF30D
:1037C0004F8FFEE711F07F4F08D04FF0500383F387
:1037D0001188BFF36F8FBFF34F8FFEE700F012F930
:1037E0002E6826EA04042C6000F02EF9304670BDE5
:1037F000F8B50F46044640B94FF0500383F31188E3
:10380000BFF36F8FBFF34F8FFEE711F07F4508D0F6
:103810004FF0500383F31188BFF36F8FBFF34F8FC7
:10382000FEE700F10C0601F0A3F8236820693B4392
:1038300023608642216806D121EA0501216001F05A
:1038400037F92068F8BD90E8880013F0806F23F006
:103850007F4203D10A4204D13846EAE732EA010E38
:10386000FAD1DB0100D5154341F0007101F06AFA8D
:10387000F2E738B5044601F07BF804F10C05636803
:1038800033B9204600F0C0FABDE8384001F010B965
:103890002069A84208D14FF0500383F31188BFF389
:1038A0006F8FBFF34F8FFEE74FF0007101F04AFAC0
:1038B000E5E700F1080343604FF0FF32C3600361A6
:1038C00000238260036070470023036170474368F0
:1038D0004B609A688A609A685160996003680861D1
:1038E0000133036070470A68531C30B50AD103697D
:1038F0005A684A6091608B605960036808610133BF
:10390000036030BD00F108035C682568AA42EFD36C
:103910002346F9E74168826803698A6082685160DA
:103920005968884208BF5A60002202611A68013A49
:103930001A6018687047000082B0002301930D4B95
:103940001B68013308D04FF0500383F31188BFF395
:103950006F8FBFF34F8FFEE74FF0500383F3118853
:10396000BFF36F8FBFF34F8F019B002BFCD002B0D2
:10397000704700BFB001002008480068006880F36D
:1039800008884FF0000080F3148862B661B6BFF378
:103990004F8FBFF36F8F00DF00BF000008ED00E026
:1039A000DFF80C00016841F470010160704700000D
:1039B00088ED00E04FF0807340F8043C074B40F87E
:1039C0000C3C21F001016FF0020340F8081C40F8A4
:1039D000202C40F8243C4438704700BF3939000897
:1039E000074B19680868B0E8F04F80F30988BFF307
:1039F0006F8F4FF0000080F311887047AFF30080A5
:103A0000684C00204FF0500383F31188BFF36F8F91
:103A1000BFF34F8F0A4A13680133012B13600DD196
:103A2000084B1B6813F0FF0F08D04FF0500383F3CF
:103A30001188BFF36F8FBFF34F8FFEE7704700BF52
:103A4000B001002004ED00E0084A136843B94FF0CC
:103A5000500383F31188BFF36F8FBFF34F8FFEE7DF
:103A6000013B13600BB983F311887047B00100204C
:103A7000EFF30980BFF36F8F154B1A681EF0100F1C
:103A800008BF20ED108A20E9F04F10602DE90900F1
:103A90004FF0500080F31188BFF34F8FBFF36F8F4B
:103AA00001F0A2F84FF0000080F3118809BC1968FA
:103AB0000868B0E8F04F1EF0100F08BFB0EC108A95
:103AC00080F30988BFF36F8F704700BFAFF30080AA
:103AD000684C002008B54FF0500383F31188BFF302
:103AE0006F8FBFF34F8F00F051FF18B1034B4FF0B2
:103AF00080521A60002383F3118808BD04ED00E0B2
:103B0000084A0949002313600B60084B4FF47A718F
:103B10001B68B3FBF1F30649013B0B6007231360FD
:103B2000704700BF10E000E018E000E0D401002082
:103B300014E000E0394B3A4A13B51968914208D1B4
:103B40004FF0500383F31188BFF36F8FBFF34F8F94
:103B5000FEE71A68334B9A4208D14FF0500383F3C3
:103B60001188BFF36F8FBFF34F8FFEE72E4B1A788C
:103B7000D2B20192FF221A701B782C4ADBB28DF868
:103B800003309DF8033003F050031370284B0722D5
:103B90001A6000219DF80300000602F1FF340DD4E5
:103BA00001B11A601A68032A11D04FF0500383F351
:103BB0001188BFF36F8FBFF34F8FFEE79DF803208F
:103BC0005200D2B28DF8032001212246E2E7120210
:103BD00002F4E0621A60019B134ADBB21370154BCA
:103BE0001A6842F470021A601A6842F070421A6051
:103BF000FFF786FF104B00241C60FFF7D1FE0F4A31
:103C0000136843F040431360FFF7B6FE00F0ECFF8B
:103C1000FFF792FE204602B010BD00BF00ED00E0AD
:103C200071C20F4170C20F4100E400E04A10002051
:103C30004C10002020ED00E0B001002034EF00E047
:103C4000EFF305830F2B0ED9104A9B5C104A1278B4
:103C50009A4208D94FF0500383F31188BFF36F8F56
:103C6000BFF34F8FFEE70B4B0B4A1B68126803F440
:103C7000E063934208D94FF0500383F31188BFF3F8
:103C80006F8FBFF34F8FFEE7704700BFF0E300E098
:103C90004A1000200CED00E04C10002010B50F4B36
:103CA0001A68824218D35C681919884201BF4168BA
:103CB000184609195960446801198A4207D1084910
:103CC00009688A421FBF5168126809194160984209
:103CD000026018BF186010BD1346E1E7604C002079
:103CE000501000202DE9F041044600F041FE40490B
:103CF000404D0B680BBB404A56071FBFD01D20F03C
:103D0000070002F570531B1A14BF02464FF470539C
:103D10001344083B23F00703384E0B60002070600B
:103D2000326058601860981A1360354B5060186004
:103D3000344B18604FF000432B602F68274216D198
:103D4000002C41D004F1080358071CBF23F00703DF
:103D5000083363B12B4A1668B342904607D8274A06
:103D600015686868834204D809688D4207D1002429
:103D70002AE02C68002CF7D02A462546F1E729686E
:103D800014681160C21A102A0FD9E818410708D028
:103D90004FF0500383F31188BFF36F8FBFF34F8F42
:103DA000FEE742606B60FFF779FF15496B680868B2
:103DB000F61A1F4386424FF00003C8F8006038BF70
:103DC0000E6008346F602B6000F072FE0CB904F0D6
:103DD000DAFB630708D04FF0500383F31188BFF379
:103DE0006F8FBFF34F8FFEE72046BDE8F08100BF25
:103DF00050100020544C002054100020604C002033
:103E00005C4C0020584C002010B5044670B3184A92
:103E100050F8043C1268134208D14FF0500383F36A
:103E20001188BFF36F8FBFF34F8FFEE750F8081C68
:103E300041B14FF0500383F31188BFF36F8FBFF38D
:103E40004F8FFEE723EA020340F8043C00F090FDA8
:103E5000084A54F8043C1168A4F108000B441360AC
:103E6000FFF71CFFBDE8104000F022BE10BD00BFF0
:103E7000544C0020584C002010B50446FFF7C2FDFA
:103E8000A46BFFF7E1FDB4FA84F0400910BD70B5F2
:103E90001546026C866B044642B905689DB9806878
:103EA00001F068F8A5600136A66370BD6DB9406881
:103EB00004F027FD6368226C1344A2686360934298
:103EC00001D3236863600020EDE7C06804F019FDAA
:103ED000236CE26821685B421A448A42E2603EBF7A
:103EE000A2689B18E360022DEDD10EB1013EEAE716
:103EF0003046D8E7034610B41A6C084662B1D96858
:103F00009C681144A142D96024BF1968D960D9685E
:103F10005DF8044B04F0F5BC5DF8044B704770B5D8
:103F20000446FFF76FFD94F8455004F124066DB286
:103F3000002D14DCFF2384F84530FFF785FDFFF7E3
:103F400061FD94F8445004F110066DB2002D12DCAE
:103F5000FF2384F84430BDE87040FFF775BD636A05
:103F6000002BE7D0304600F0ABFE08B100F092FF26
:103F7000013D6DB2DCE72369002BE9D0304600F04B
:103F80009FFE08B100F086FF013D6DB2DEE7000044
:103F900038B50D46044640B94FF0500383F31188FD
:103FA000BFF36F8FBFF34F8FFEE7FFF72BFD206C42
:103FB000E36B226862604343D1181B1A1344A1606B
:103FC000E3600021FF23A16384F8443084F8453086
:103FD00095B9236963B104F1100000F071FE38B1A6
:103FE0000A4B4FF080521A60BFF34F8FBFF36F8FB1
:103FF000FFF72AFD012038BD04F11000FFF759FC3E
:1040000004F12400FFF755FCF2E700BF04ED00E0E7
:1040100070B50D46064640B94FF0500383F3118842
:10402000BFF36F8FBFF34F8FFEE748434830FFF772
:1040300059FE044638B145B92060E6632564012184
:104040002046FFF7A5FF204670BD00F1480303603E
:10405000F3E710B50C4640B94FF0500383F31188D5
:10406000BFF36F8FBFF34F8FFEE7884208D24FF048
:10407000500383F31188BFF36F8FBFF34F8FFEE7B9
:1040800002220021FFF7C4FF00B1846310BD0000CD
:104090002DE9FF47894601921F46044640B94FF07B
:1040A000500383F31188BFF36F8FBFF34F8FFEE789
:1040B000002940F08880036C002B00F084804FF0D2
:1040C000500383F31188BFF36F8FBFF34F8FFEE769
:1040D000019E002E00F082804FF0500383F3118880
:1040E000BFF36F8FBFF34F8FFEE7019D1DB9FFF741
:1040F000ABFC002058E016B902A800F083FEFFF7E1
:10410000A3FC00F035FCFFF77DFC94F84430FF2B56
:1041100008BF84F8448094F84530FF2B08BF84F82A
:104120004580FFF791FC01A902A800F077FE002866
:1041300043D1FFF767FCA66BE56BFFF785FCAE424A
:1041400035D1019904F1100000F0A0FD2046FFF7E1
:10415000E6FE00F0ADFC38B94FF08053CAF80030ED
:10416000BFF34F8FBFF36F8F0126FFF74BFCA26B9E
:10417000E36B9A4201D3022FB7D13A464946204613
:10418000FFF785FE636A1BB104F1240000F098FD7F
:1041900038B1194B4FF080521A60BFF34F8FBFF305
:1041A0006F8FFFF751FC012004B0BDE8F087204677
:1041B000FFF7B5FE00F07CFCD6E72046FFF7AFFE28
:1041C00000F076FC95E7022F02D1E36B012B0AD1B8
:1041D00000F06CFE00283FF47BAF00264FF0000893
:1041E000DFF814A0C1E74FF0500383F31188BFF349
:1041F0006F8FBFF34F8FFEE704ED00E02DE9F8432A
:10420000884691461F46044640B94FF0500383F359
:104210001188BFF36F8FBFF34F8FFEE709BB036CAD
:10422000FBB14FF0500383F31188BFF36F8FBFF3DF
:104230004F8FFEE704F1240000F042FD002834D047
:10424000B9F1000F31D00120C9F8000086F31188C0
:10425000BDE8F88301356DB284F8455025E00020B3
:10426000F4E7022F02D1E36B012B20D1FFF7E8FC2A
:10427000EFF311864FF0500383F31188BFF36F8F74
:10428000BFF34F8FA26BE36B9A4201D3022FE6D1AB
:1042900094F845503A466DB241462046FFF7F7FD87
:1042A0006B1CD7D1636A002BC4D10120CEE74FF03D
:1042B000500383F31188BFF36F8FBFF34F8FFEE777
:1042C0002DE9F04385B088460192044640B94FF08D
:1042D000500383F31188BFF36F8FBFF34F8FFEE757
:1042E000002940F08680036C002B00F082804FF0A4
:1042F000500383F31188BFF36F8FBFF34F8FFEE737
:10430000019E002E7AD04FF0500383F31188BFF343
:104310006F8FBFF34F8FFEE7019D1DB9FFF794FB31
:10432000002052E016B902A800F06CFDFFF78CFBEC
:1043300000F01EFBFFF766FB94F84430FF2B08BF2C
:1043400084F8447094F84530FF2B08BF84F845701A
:10435000FFF77AFB01A902A800F060FD00283DD11B
:104360002046FFF789FD98B3019904F1240000F07D
:104370008DFC2046FFF7D3FD00F09AFB38B94FF0D3
:104380008053C9F80030BFF34F8FBFF36F8F012602
:10439000FFF738FBA56B002DBED041462046013DFE
:1043A000FFF7A8FDA563236963B104F1100000F0D5
:1043B00087FC38B1134B4FF080521A60BFF34F8F18
:1043C000BFF36F8FFFF740FB012005B0BDE8F0831E
:1043D0002046FFF7A4FD00F06BFBD8E72046FFF76F
:1043E0009EFD00F065FB2046FFF746FD0028CED07D
:1043F00096E700F05BFD002882D000260027DFF85A
:104400000490C5E704ED00E02DE9FF410446019169
:1044100040B94FF0500383F31188BFF36F8FBFF3A0
:104420004F8FFEE7056C45B14FF0500383F31188C1
:10443000BFF36F8FBFF34F8FFEE700F037FD18B962
:10444000019D002D40F09580DFF838812E46002731
:10445000FFF7D8FAA36BE3B1013BA363236813B959
:1044600000F032FEA060236963B104F1100000F097
:1044700027FC38B1434B4FF080521A60BFF34F8F87
:10448000BFF36F8FFFF7E0FA0125284604B0BDE8BF
:10449000F081019B63B945B14FF0500383F311885C
:1044A000BFF36F8FBFF34F8FFEE7FFF7CDFAECE757
:1044B00016B902A800F0A6FCFFF7C6FA00F058FAF9
:1044C000FFF7A0FA94F84430FF2B08BF84F844703B
:1044D00094F84530FF2B08BF84F84570FFF7B4FA15
:1044E00001A902A800F09AFC40BB2046FFF7C4FCDB
:1044F000F0B123683BB9FFF785FAA06800F0E6FC4D
:104500000546FFF7A1FA019904F1240000F0BEFB73
:104510002046FFF704FD00F0CBFA38B94FF0805386
:10452000C8F80030BFF34F8FBFF36F8F01268FE7BE
:104530002046FFF7F4FC00F0BBFAF7E72046FFF750
:10454000EEFC00F0B5FA2046FFF796FC0028EDD00F
:10455000002D9AD0FFF756FA616A19B1236B1968DA
:10456000C1F10701A06800F055FD0025FFF76CFAC6
:104570008BE74FF0500383F31188BFF36F8FBFF3C6
:104580004F8FFEE704ED00E010B5044640B94FF050
:10459000500383F31188BFF36F8FBFF34F8FFEE794
:1045A000FFF730FAA46BFFF74FFA204610BD00006A
:1045B00030B5074A002352F8335002EBC3041DB94B
:1045C00042F83310606030BD0133082BF3D130BDA9
:1045D0004869002010B5084A002302EBC3014C686B
:1045E000844204D1002042F83300486010BD0133FA
:1045F000082BF2D110BD00BF4869002010B5044659
:1046000040B94FF0500383F31188BFF36F8FBFF3AE
:104610004F8FFEE7FFF7DEFF2046BDE81040FFF7B3
:10462000F3BB0000064A13681968064B19B94FF02E
:10463000FF321A6070471268D268D2685268F8E791
:104640006C4C0020444D0020F8B51B4B1B4E1D68E0
:104650000446306804300F46FFF75CF9334640B932
:104660003168174EC96A32680120884022EA000288
:104670003260621C07D137B1196812480431BDE8B5
:10468000F840FFF724B92C441A68A542546007D9B2
:104690000D4A10681968BDE8F8400431FFF723B9E6
:1046A0000A4A106819680431FFF71DF9084B1A68A7
:1046B000944238BF1C60F8BD8C4D0020684C00202F
:1046C000144D0020644D0020704C00206C4C0020E4
:1046D000444D002080B5DFF86480144F144C154E13
:1046E000236863B9144B1B68012BF8D94FF0805332
:1046F000C8F80030BFF34F8FBFF36F8FEEE7FFF7BF
:1047000081F9FB68DD68281DFFF704F93368013B78
:1047100033602368013B2360FFF796F9286BFFF7AE
:1047200073FB2846FFF770FBDAE700BF784D0020E7
:10473000044D0020004D0020744C002004ED00E0EA
:104740002DE9F84F4FEA820A804650460D469946B9
:104750000B9EFFF7C7FA074690B15420FFF7C2FA45
:10476000044650B1076375B94FF0500383F31188C5
:10477000BFF36F8FBFF34F8FFEE73846FFF744FB61
:104780004FF0FF358DE05246A521384604F0DEF8A3
:10479000236BAAF1040A9A442AF0070A6B1E04F15B
:1047A00034020F35597802F8011B13F8011F09B1C3
:1047B000AB42F7D10A9D062D28BF06254FF0000B0E
:1047C000271DE5626564384684F843B0C4F848B0F4
:1047D000FFF77AF8C5F1070504F11800FFF774F840
:1047E000C4F84CB02461A561646284F850B04A46B4
:1047F00041465046FFF7DEF8206006B13460FFF70F
:1048000001F92F4B2F4E1A68DFF8E48001321A604D
:104810003568002D48D134601B68012B1DD108EB91
:1048200005001435FFF745F88C2DF8D1DFF8C4905A
:10483000254D4846FFF73DF82846FFF73AF823484C
:10484000FFF737F82248FFF734F82248FFF731F82E
:10485000214BC3F80090214B1D60214A2149136868
:10486000086801331360E26A012505FA02F3034385
:1048700014200B6000FB02803946FFF728F8FFF791
:10488000E3F8194B1B6863B13368DA6AE36A9A424A
:1048900007D2164B4FF080521A60BFF34F8FBFF311
:1048A0006F8F2846BDE8F88F0F4B1B68002BD4D1C3
:1048B0003368DA6AE36A9A4298BF3460CDE700BF92
:1048C000004D0020684C00202C4D00204C4D002055
:1048D000784D0020644D00206C4C0020704C00206E
:1048E000104D0020144D0020604D002004ED00E02C
:1048F000744C0020184D002013B5174B0193002471
:1049000000942346802215491548FFF719FF012816
:1049100014D14FF0500383F31188BFF36F8FBFF3AF
:104920004F8F104B4FF0FF321A600F4B18600F4B38
:104930001C6002B0BDE81040FFF7FCB8013008D1A0
:104940004FF0500383F31188BFF36F8FBFF34F8F86
:10495000FEE702B010BD00BF404D00205D8D000895
:10496000D5460008444D0020604D00208C4D0020AD
:10497000024A136801331360704700BF0C4D0020DA
:10498000014B1868704700BF8C4D00202DE9F84F8F
:104990003C4B1B68002B6DD13B4B1C6801341C60E9
:1049A000BCB93A4B1A68126842B14FF0500383F316
:1049B0001188BFF36F8FBFF34F8FFEE7344A19683A
:1049C000106818601160334A136801331360FFF7F1
:1049D00029FE314D314F2B689C424FF0000B0AD31A
:1049E000DFF8A8A0DFF8C490DAF800201268A2B9B6
:1049F0004FF0FF322A603A68294BD16A14224A43A9
:104A00009A58022A28BF4FF0010B264A1268002A42
:104A10000CBF58460120BDE8F88FDAF80020D268B4
:104A2000D66871688C4201D22960E4E706F1040877
:104A30004046FEF76FFFB16A19B106F11800FEF7A4
:104A400069FFF06AD9F80030012202FA00F1194337
:104A5000134BC9F800104FF0140E41460EFB003006
:104A6000FEF735FF3868F16AC26A914228BF4FF0FD
:104A7000010BB9E70C4A1368013313604FF0000BC8
:104A8000C3E700BF0C4D00208C4D00206C4C002073
:104A9000704C0020484D0020444D0020684C002000
:104AA000744C0020904D0020084D0020144D002033
:104AB0002DE9F843314C236843B94FF0500383F399
:104AC0001188BFF36F8FBFF34F8FFEE7FEF79AFF9A
:104AD0002368013B236024682CB10024FEF7B4FF57
:104AE0002046BDE8F883264B1B68002BF5D0DFF885
:104AF000A890244FDFF8A480D9F80030E3B90CB1B6
:104B0000FFF790FD204D2C6844B1204E0127FFF7A0
:104B10003DFF00B13760013CF9D12C601B4B1B6895
:104B2000002BDAD01A4B4FF080521A60BFF34F8F30
:104B3000BFF36F8F0124D1E7D9F80C30DC68261D54
:104B400004F11800FEF7E6FE3046FEF7E3FEE26AE7
:104B50003968012505FA02F314200B4300FB02809B
:104B600031463B60FEF7B3FE0A4BE26A1B68DB6A24
:104B70009A4224BF054B1D60BEE700BF0C4D0020CC
:104B8000004D0020144D0020084D0020904D0020C5
:104B900004ED00E0684C00204C4D0020744C0020D7
:104BA00008B540B90E4B4FF080521A60BFF34F8FDB
:104BB000BFF36F8F08BD0B4B196841B14FF0500325
:104BC00083F31188BFF36F8FBFF34F8FFEE7FFF7BB
:104BD000CFFEFFF739FDFFF76BFF0028E2D008BDDD
:104BE00004ED00E00C4D002038B5234B1A68234B30
:104BF00012B101221A6038BD214C1A6023681B6B68
:104C00001A68B2F1A53F0BD15A68B2F1A53F07D19E
:104C10009A68B2F1A53F03D1DB68B3F1A53F04D098
:104C200020682168343103F0ADFC164B1B68B3FAE1
:104C300083F3DBB2C3F11F03142213495A438818CC
:104C40008D5845B94FF0500383F31188BFF36F8F30
:104C5000BFF34F8FFEE7456808326D6845600A4430
:104C6000954204BF6A684260142202FB03135B682A
:104C7000DB68236038BD00BF0C4D0020904D002044
:104C8000684C0020144D0020744C002010B50C46D8
:104C900040B94FF0500383F31188BFF36F8FBFF318
:104CA0004F8FFEE7054B19681831FEF71CFE2046B2
:104CB0000121BDE81040FFF7C7BC00BF684C0020D1
:104CC00038B5C368DC6844B94FF0500383F31188EA
:104CD000BFF36F8FBFF34F8FFEE704F1180528462F
:104CE000FEF718FE114B1B68E3B9251D2846FEF799
:104CF00011FE0F49E26A08680123934003430B60E9
:104D00000C4B1420294600FB0230FEF7E0FD0A4B55
:104D1000E26A1B68DB6A9A4283BF084B0120186075
:104D2000002038BD29460648EFE700BF0C4D0020A3
:104D3000144D0020744C0020684C0020904D002041
:104D40004C4D00201C4A126870B542B94FF0500318
:104D500083F31188BFF36F8FBFF34F8FFEE7C468F3
:104D600041F00041016044B94FF0500383F31188D2
:104D7000BFF36F8FBFF34F8FFEE7261DFEF7CAFD0F
:104D80003046FEF7C7FD0D49E26A0868012505FABD
:104D900002F303430B600A4B142000FB0230314640
:104DA000FEF795FD074BE26A1B68DB6A9A4284BFF7
:104DB000054B1D6070BD00BF0C4D0020144D002040
:104DC000744C0020684C0020904D002010B5044623
:104DD00040B94FF0500383F31188BFF36F8FBFF3D7
:104DE0004F8FFEE7FEF70EFE044B1B682360044B5B
:104DF0001B686360BDE81040FEF726BE484D0020EA
:104E00008C4D0020034B1B680360034B1B68436001
:104E1000704700BF484D00208C4D002070B50C46F7
:104E2000054640B94FF0500383F31188BFF36F8FED
:104E3000BFF34F8FFEE741B94FF0500383F3118862
:104E4000BFF36F8FBFF34F8FFEE7FEF7DBFD0F4B16
:104E500069681A682368581C0ED00D482E680068CF
:104E6000864201D08A420ED2521A9A4209D29B1A25
:104E700023602846FFF7C6FF0024FEF7E5FD204625
:104E800070BD002323600124F7E700BF8C4D002094
:104E9000484D0020014B01221A607047904D0020C0
:104EA000014B1868704700BF684C0020054B1B6819
:104EB00033B1054B1B68002B0CBF0220002070474C
:104EC00001207047604D00200C4D00202DE9F0417D
:104ED0000446002835D0244AC36A1168C96A8B4247
:104EE000174637D28269214D002AA1BF3A68D26A9B
:104EF000C2F1070282611426426906FB03539A42FB
:104F000022D100F104084046FEF704FD184B48B9D1
:104F1000E06A4643AA592AB91A680121814022EA67
:104F200001021A603A681968D26AE262012404FA3E
:104F300002F0084318601420414600FB0250FEF7BF
:104F4000C6FC2046BDE8F0813B68DB6AC3620120F5
:104F5000BDE8F0811368406CDC6AA0422CBF0020E1
:104F60000120BDE8F08100BF684C0020744C002097
:104F7000144D0020F8B5044608B90020F8BD224BB6
:104F80001B68984208D04FF0500383F31188BFF399
:104F90006F8FBFF34F8FFEE7836C43B94FF0500321
:104FA00083F31188BFF36F8FBFF34F8FFEE7C16AA2
:104FB000426C013B91428364DFD0002BDDD1051DA3
:104FC0002846FEF7A7FC114E114A50B9E76A142192
:104FD000794373582BB913680120B84023EA0003C2
:104FE0001360636CE362C3F10701A16111680124DE
:104FF00004FA03F008431060142000FB0360294604
:10500000FEF765FC2046F8BD684C0020744C00207B
:10501000144D0020F8B5044600284DD0826C42B9EA
:105020004FF0500383F31188BFF36F8FBFF34F8F9F
:10503000FEE7436C994238BF1946C36A8B423BD0A6
:10504000012A39D11D4A1268904208D14FF050030D
:1050500083F31188BFF36F8FBFF34F8FFEE7826931
:10506000174DC162002A4FF014064269A8BFC1F172
:10507000070106FB0353A8BF81619A421CD1071D9B
:105080003846FEF747FCE26A0E4C40B95643AB592E
:105090002BB923680121914023EA01032360216891
:1050A000012393400B4314202360394600FB025038
:1050B000BDE8F840FEF70BBCF8BD00BF684C00200F
:1050C000744C0020144D0020044B1A681AB1196862
:1050D0008A6C01328A641868704700BF684C0020EF
:1050E00070B5164C06460D46FEF78CFC2368DB6C4B
:1050F0007BB92368012183F8501055B12846FFF78A
:10510000A3FA0F4B4FF080521A60BFF34F8FBFF3DB
:105110006F8FFEF799FCFEF775FC2368DD6C1DB1FF
:1051200023684EB10022DA642368002283F85020FD
:10513000FEF78AFC284670BD6A1EF4E7684C002022
:1051400004ED00E02DE9F0410E46044640B94FF071
:10515000500383F31188BFF36F8FBFF34F8FFEE7C8
:10516000FEF76EFDEFF311874FF0500383F31188C4
:10517000BFF36F8FBFF34F8F022394F8505084F822
:105180005030E36CEDB20133012DE3642AD1A36A00
:1051900043B14FF0500383F31188BFF36F8FBFF318
:1051A0004F8FFEE7134B1B6803BB04F10408404616
:1051B000FEF7B0FB104AE36A11689D400D4315608D
:1051C0000E4A1420414600FB0320FEF780FB0C4BE7
:1051D000E26A1B68DB6A9A4204D9012306B1336094
:1051E000084A136087F31188BDE8F08104F11801C3
:1051F0000548EAE70C4D0020144D0020744C0020B7
:10520000684C0020904D00204C4D00202DE9F84FB7
:10521000394B3A4A5B6952688A4659401142064600
:1052200001D0002B66D14FF000084FF0FF37DFF8B8
:10523000D4904FF0FF0B3D46444659F8043C9A4544
:1052400011D1002E4AD006223146484603F04AFBCF
:10525000F8B92B4A0C2303FB04249623A3720123E1
:10526000E372BDE8F88F2EB106223146484603F0BE
:1052700039FB80B199F806305B450ED30134062C1A
:1052800009F10C09D9D1781C0AD0691C29D1B8467A
:1052900009E02546F2E72746F0E79B46A046EDE702
:1052A0006A1C00D0A8460C23154903FB08F3CA1852
:1052B00041F803A05EB104333068C850CC18B388FD
:1052C000A380962393720123D372BDE8F88F013532
:1052D00010D105239372D672BDE8F88F7B1C25464A
:1052E000E0D007480C236B43C1180022C2504A602B
:1052F0008A60CCE7BDE8F88FB4010020884E00201A
:10530000944D0020984D00202DE9F041234D044696
:10531000686940B1A38AE669B3F5807F05D0B3F52B
:10532000007F35D00020BDE8F081D4F8268080458C
:10533000F8D104F1160731463846FFF767FF02221D
:10534000002346456275237504F1200219D11449E2
:10535000236208688988C4F806006181938084F814
:10536000263084F8273084F8283084F829302868DB
:10537000C4F81600AB88BB806B69E3610220BDE80E
:10538000F0813B682362BB889380C4F82660EEE717
:10539000314604F11600FFF739FFC3E7B4010020DE
:1053A0009E8D000803681B4A9342F0B506D11A4B44
:1053B0001A689B880A608B800120F0BD5A1C03D0BC
:1053C000164C2269934201D1154BF1E7154A5269F7
:1053D000F2B165685A402A4201D0A2680AB9BBB14D
:1053E0001A46114D00240C2606FB04F35F59974220
:1053F00008D1EA18D27A5AB10433EA18E85808609A
:105400009388D8E70134062CEED102600020F0BD6D
:105410000220F0BDE00000FC888D0008884E0020CE
:105420009E8D0008B4010020944D002083690F4A2E
:1054300030B5014602F12404184652F8045B40F8E6
:10544000045BA242F9D112880280094A1068C3F8AD
:10545000060094885C81C3F8160052695C83DA61A7
:105460004A69C3F826202A23CB6130BD628D00082B
:10547000B401002038B5002105462A2003F03CF88D
:10548000044640B14561FFF7D1FF20460121BDE848
:105490003840FDF727B938BD38B5134C04F148053D
:1054A000A37A6BB1013BE27ADBB2A3721AB920682E
:1054B000FFF7E0FF01E0032BF9D9A37A03B92360DA
:1054C0000C34AC42ECD1094CFFF75AFA226805467D
:1054D00022B1821A44F620639A4204D9044B5869D7
:1054E000FFF7C8FF256038BD944D0020DC4D00203B
:1054F000B401002089B1037803F0C003C02B08D1A8
:1055000002290AD90230704701338B4205D2C91AE9
:10551000184403781BB10129F6D8002070470130E8
:10552000704700002DE9F04F85B000230B29064697
:105530000D46009301930293039304D80025284657
:1055400005B0BDE8F08F018892B29142F6D1828811
:105550004FEA122848EA022800F10C04A5F10C01D8
:105560001FFA88F89E461A461F46424511D1F08818
:105570004FEA102848EA0028708800F478601FFA83
:1055800088F88028A6F8068040F0C48000222E44C7
:1055900087E0002A40F06E810029CFD0237803F005
:1055A000C003C02B3ED10229C8D9A01C0028C5D0F9
:1055B0007119091A27460329C0D9037890F801E028
:1055C00090F802C04EEA032EC3780132041D04395C
:1055D00092B243EA0C23C8E73BB10E2B9FBF0DF1FB
:1055E000100E9E4401330EF810CC013900F1010E6B
:1055F000CF1BB942704601D0012909D1BEF1000F7D
:105600009CD00778002F00F03E810129E4D195E776
:105610000E2B93D800780DF803000EF1010E01391E
:105620000133E6E7204613464FF02E0CE9E701343C
:10563000042C06F11C065BD16846FAF7D3FD0F284F
:105640003FF67DAFDFF86092DFF84CA2D9F800405A
:105650001C266643301D6946504403F093FA01341A
:105660000AEB0603042C4AF80650C3F814809F6125
:10567000C9F800407FF463AF0023C9F800305EE74B
:1056800009290CD92089030A43EA00230A399BB26D
:105690009942FFF453AF03F10A000444C91A0132DE
:1056A00092B242453FF44AAF2046FFF723FF04463B
:1056B00000283FF443AF311A0D29E1D9007863780F
:1056C00043EA0023012BDDD12289130A43EA022396
:1056D0001BB2042B7FF432AFD4F80A50D4F8048004
:1056E0006C4EFFF74DF900244FF47A77B0FBF7F7D3
:1056F0003378002BA0D069463046FAF769FD0028C0
:1057000095D1654A1C235C4313191551C3F81480C5
:105710009F6114E7002A3FF411AFBEF1010F7FF43F
:105720000DAF012B7FF40AAF781C02F0EBFF0028CD
:105730003FF404AF304600F02AF9584B1B6881460D
:10574000002B40F0918000283FF4F8AE05F12A03C9
:10575000C36105F13A0100F003F9824600283FF4E5
:10576000EDAE33468669E41A2A36FF1A34443744CC
:10577000814600254FF0010B8020C023B070F570EA
:10578000B57186F807B035727572B572F5729322ED
:1057900023700423E3712272E372BF1B404B6770D6
:1057A000E022A57084F803B0257184F805B0A571D6
:1057B0006272A5725A6912BA120E22735A6912BA2B
:1057C000120C62735A6912BA120AA273DA7DE2737A
:1057D000A41BA4B204F110010FFA81F808F11C0215
:1057E000D9F8187004F12C01120A42EA01223A8217
:1057F000D7F81A202B49C7F81E205B69C7F81A3062
:105800000B88B8751A0A42EA032204F118065B44B1
:1058100008F108040B80240A7B8C7A8244EA06246F
:10582000BA8C7A84BB84142207F10E01FC843D7685
:105830007D76284600F0D6F940BAC0433883414609
:105840005A46384600F03EFA08F12A01C9F81C1001
:105850004846294600F0AAFABAF1000F3FF46EAEAE
:10586000504602F025FE6AE600283FF467AE4FF08E
:10587000000A7EE72046FFF73DFE00283FF45EAEBB
:105880007119091A97E604A90B44013003F8107C3A
:105890008CE600BFE44D0020E04D0020B48D0008F0
:1058A000B4010020544E0020504E002008B5C369BA
:1058B000352BA3F12A0104D9806930F82A2FFFF78C
:1058C00031FE002008BD0378DA0770B5044601D424
:1058D000002070BD13F0020F00F104050FD02669FF
:1058E0002846FFF773FAE660237886B943F002038F
:1058F0002370237843F001032370012070BD00F171
:105900000C012846FFF78AFA0028E8D1E0E76FF398
:105910004103EDE708B5FFF7C3FA034B1B681B1AF9
:105920005842584108BD00BF804E002013B50948B9
:105930000949006802AA002442F8044D2346FEF7F4
:105940005DFC064B012801980EBF1C6001221A6005
:1059500002B010BDA04E0020AC8D00089C4E00206F
:1059600070B50E4605460021304602F0C5FD0446DE
:1059700058B16B6943612B8CC66103846B8C438483
:10598000EA69A969806902F0BCFF204670BD28B1B0
:10599000830702D150F8340C704700207047000094
:1059A0002DE9F74F9846424B0C9F1B6883468A4669
:1059B000914643B14FF0500383F31188BFF36F8FCB
:1059C000BFF34F8FFEE73B4D2B6843B14FF05003C1
:1059D00083F31188BFF36F8FBFF34F8FFEE7364E0F
:1059E000346844B14FF0500383F31188BFF36F8FD5
:1059F000BFF34F8FFEE7224608214120FEF708FB48
:105A0000286040B94FF0500383F31188BFF36F8FC4
:105A1000BFF34F8FFEE72949FEF7CAFD02F002FDF2
:105A200001283ED1264CDBF800502560DAF800C092
:105A3000C4F804C0D9F80090C4F80890D8F8003031
:105A4000E36065EA0C08C4F810800FCCDFF880E052
:105A5000AEE80F001B4BCEF800805D6185EA0905BA
:105A600015EA0C0508D04FF0500383F31188BFF3FB
:105A70006F8FBFF34F8FFEE738681860BA889A803F
:105A800000F076FB012809D10523009301962B46EF
:105A90004FF420720C490D48FEF752FE03B0BDE8EA
:105AA000F08F2868FEF7AAFD2C602046F6E700BFBD
:105AB000844E0020A04E0020804E00208E8D0008D5
:105AC000884E0020B4010020968D0008D95D0008A2
:105AD0006C4E0020124B70B50546186895F90030E1
